{"contracts/ChainLogCapsule.sol":{"ChainLogCapsule":{"abi":[{"inputs":[{"internalType":"address","name":"_treasury","type":"address"}],"stateMutability":"nonpayable","type":"constructor"},{"inputs":[],"name":"ReentrancyGuardReentrantCall","type":"error"},{"inputs":[{"internalType":"address","name":"token","type":"address"}],"name":"SafeERC20FailedOperation","type":"error"},{"anonymous":false,"inputs":[{"indexed":true,"internalType":"uint256","name":"capsuleId","type":"uint256"},{"indexed":true,"internalType":"address","name":"creator","type":"address"},{"indexed":true,"internalType":"address","name":"recipient","type":"address"},{"indexed":false,"internalType":"enum ChainLogCapsule.CapsuleType","name":"capsuleType","type":"uint8"},{"indexed":false,"internalType":"uint256","name":"unlockTime","type":"uint256"},{"indexed":false,"internalType":"string","name":"contentCID","type":"string"}],"name":"CapsuleCreated","type":"event"},{"anonymous":false,"inputs":[{"indexed":true,"internalType":"uint256","name":"capsuleId","type":"uint256"},{"indexed":true,"internalType":"address","name":"opener","type":"address"},{"indexed":false,"internalType":"uint256","name":"penalty","type":"uint256"}],"name":"CapsuleEarlyOpened","type":"event"},{"anonymous":false,"inputs":[{"indexed":true,"internalType":"uint256","name":"capsuleId","type":"uint256"},{"indexed":true,"internalType":"address","name":"opener","type":"address"}],"name":"CapsuleOpened","type":"event"},{"anonymous":false,"inputs":[{"indexed":true,"internalType":"uint256","name":"capsuleId","type":"uint256"},{"indexed":true,"internalType":"address","name":"to","type":"address"}],"name":"NftsWithdrawn","type":"event"},{"anonymous":false,"inputs":[{"indexed":true,"internalType":"uint256","name":"capsuleId","type":"uint256"},{"indexed":true,"internalType":"address","name":"to","type":"address"}],"name":"TokensWithdrawn","type":"event"},{"inputs":[{"internalType":"uint256","name":"","type":"uint256"},{"internalType":"uint256","name":"","type":"uint256"}],"name":"capsuleNfts","outputs":[{"internalType":"address","name":"collection","type":"address"},{"internalType":"uint256","name":"tokenId","type":"uint256"},{"internalType":"bool","name":"isERC1155","type":"bool"},{"internalType":"uint256","name":"amount","type":"uint256"}],"stateMutability":"view","type":"function"},{"inputs":[{"internalType":"uint256","name":"","type":"uint256"},{"internalType":"uint256","name":"","type":"uint256"}],"name":"capsuleTokens","outputs":[{"internalType":"address","name":"token","type":"address"},{"internalType":"uint256","name":"amount","type":"uint256"}],"stateMutability":"view","type":"function"},{"inputs":[{"internalType":"uint256","name":"","type":"uint256"}],"name":"capsules","outputs":[{"internalType":"uint256","name":"id","type":"uint256"},{"internalType":"address","name":"creator","type":"address"},{"internalType":"address","name":"recipient","type":"address"},{"internalType":"enum ChainLogCapsule.CapsuleType","name":"capsuleType","type":"uint8"},{"internalType":"enum ChainLogCapsule.CapsuleStatus","name":"status","type":"uint8"},{"internalType":"string","name":"contentCID","type":"string"},{"internalType":"uint256","name":"sealTime","type":"uint256"},{"internalType":"uint256","name":"unlockTime","type":"uint256"},{"internalType":"bool","name":"allowEarlyUnlock","type":"bool"},{"internalType":"uint256","name":"nativeAmount","type":"uint256"},{"internalType":"uint256","name":"tokenCount","type":"uint256"},{"internalType":"uint256","name":"nftCount","type":"uint256"}],"stateMutability":"view","type":"function"},{"inputs":[{"internalType":"enum ChainLogCapsule.CapsuleType","name":"_type","type":"uint8"},{"internalType":"address","name":"_recipient","type":"address"},{"internalType":"string","name":"_contentCID","type":"string"},{"internalType":"uint256","name":"_unlockTime","type":"uint256"},{"internalType":"bool","name":"_allowEarlyUnlock","type":"bool"},{"components":[{"internalType":"address","name":"token","type":"address"},{"internalType":"uint256","name":"amount","type":"uint256"}],"internalType":"struct ChainLogCapsule.TokenLock[]","name":"_tokens","type":"tuple[]"},{"components":[{"internalType":"address","name":"collection","type":"address"},{"internalType":"uint256","name":"tokenId","type":"uint256"},{"internalType":"bool","name":"isERC1155","type":"bool"},{"internalType":"uint256","name":"amount","type":"uint256"}],"internalType":"struct ChainLogCapsule.NftLock[]","name":"_nfts","type":"tuple[]"}],"name":"createCapsule","outputs":[{"internalType":"uint256","name":"","type":"uint256"}],"stateMutability":"payable","type":"function"},{"inputs":[{"internalType":"uint256","name":"_capsuleId","type":"uint256"}],"name":"earlyOpen","outputs":[],"stateMutability":"nonpayable","type":"function"},{"inputs":[],"name":"earlyUnlockPenaltyBps","outputs":[{"internalType":"uint256","name":"","type":"uint256"}],"stateMutability":"view","type":"function"},{"inputs":[{"internalType":"uint256","name":"_id","type":"uint256"}],"name":"getCapsule","outputs":[{"components":[{"internalType":"uint256","name":"id","type":"uint256"},{"internalType":"address","name":"creator","type":"address"},{"internalType":"address","name":"recipient","type":"address"},{"internalType":"enum ChainLogCapsule.CapsuleType","name":"capsuleType","type":"uint8"},{"internalType":"enum ChainLogCapsule.CapsuleStatus","name":"status","type":"uint8"},{"internalType":"string","name":"contentCID","type":"string"},{"internalType":"uint256","name":"sealTime","type":"uint256"},{"internalType":"uint256","name":"unlockTime","type":"uint256"},{"internalType":"bool","name":"allowEarlyUnlock","type":"bool"},{"internalType":"uint256","name":"nativeAmount","type":"uint256"},{"internalType":"uint256","name":"tokenCount","type":"uint256"},{"internalType":"uint256","name":"nftCount","type":"uint256"}],"internalType":"struct ChainLogCapsule.Capsule","name":"","type":"tuple"}],"stateMutability":"view","type":"function"},{"inputs":[{"internalType":"uint256","name":"_id","type":"uint256"}],"name":"getCapsuleNfts","outputs":[{"components":[{"internalType":"address","name":"collection","type":"address"},{"internalType":"uint256","name":"tokenId","type":"uint256"},{"internalType":"bool","name":"isERC1155","type":"bool"},{"internalType":"uint256","name":"amount","type":"uint256"}],"internalType":"struct ChainLogCapsule.NftLock[]","name":"","type":"tuple[]"}],"stateMutability":"view","type":"function"},{"inputs":[{"internalType":"uint256","name":"_id","type":"uint256"}],"name":"getCapsuleStatus","outputs":[{"internalType":"enum ChainLogCapsule.CapsuleStatus","name":"","type":"uint8"}],"stateMutability":"view","type":"function"},{"inputs":[{"internalType":"uint256","name":"_id","type":"uint256"}],"name":"getCapsuleTokens","outputs":[{"components":[{"internalType":"address","name":"token","type":"address"},{"internalType":"uint256","name":"amount","type":"uint256"}],"internalType":"struct ChainLogCapsule.TokenLock[]","name":"","type":"tuple[]"}],"stateMutability":"view","type":"function"},{"inputs":[{"internalType":"address","name":"_user","type":"address"}],"name":"getReceivedCapsules","outputs":[{"internalType":"uint256[]","name":"","type":"uint256[]"}],"stateMutability":"view","type":"function"},{"inputs":[{"internalType":"address","name":"_user","type":"address"}],"name":"getUserCapsules","outputs":[{"internalType":"uint256[]","name":"","type":"uint256[]"}],"stateMutability":"view","type":"function"},{"inputs":[],"name":"nextCapsuleId","outputs":[{"internalType":"uint256","name":"","type":"uint256"}],"stateMutability":"view","type":"function"},{"inputs":[{"internalType":"address","name":"","type":"address"},{"internalType":"address","name":"","type":"address"},{"internalType":"uint256[]","name":"","type":"uint256[]"},{"internalType":"uint256[]","name":"","type":"uint256[]"},{"internalType":"bytes","name":"","type":"bytes"}],"name":"onERC1155BatchReceived","outputs":[{"internalType":"bytes4","name":"","type":"bytes4"}],"stateMutability":"pure","type":"function"},{"inputs":[{"internalType":"address","name":"","type":"address"},{"internalType":"address","name":"","type":"address"},{"internalType":"uint256","name":"","type":"uint256"},{"internalType":"uint256","name":"","type":"uint256"},{"internalType":"bytes","name":"","type":"bytes"}],"name":"onERC1155Received","outputs":[{"internalType":"bytes4","name":"","type":"bytes4"}],"stateMutability":"pure","type":"function"},{"inputs":[{"internalType":"address","name":"","type":"address"},{"internalType":"address","name":"","type":"address"},{"internalType":"uint256","name":"","type":"uint256"},{"internalType":"bytes","name":"","type":"bytes"}],"name":"onERC721Received","outputs":[{"internalType":"bytes4","name":"","type":"bytes4"}],"stateMutability":"pure","type":"function"},{"inputs":[{"internalType":"uint256","name":"_capsuleId","type":"uint256"}],"name":"openCapsule","outputs":[],"stateMutability":"nonpayable","type":"function"},{"inputs":[],"name":"owner","outputs":[{"internalType":"address","name":"","type":"address"}],"stateMutability":"view","type":"function"},{"inputs":[{"internalType":"address","name":"","type":"address"},{"internalType":"uint256","name":"","type":"uint256"}],"name":"receivedCapsules","outputs":[{"internalType":"uint256","name":"","type":"uint256"}],"stateMutability":"view","type":"function"},{"inputs":[{"internalType":"uint256","name":"_bps","type":"uint256"}],"name":"setPenaltyBps","outputs":[],"stateMutability":"nonpayable","type":"function"},{"inputs":[{"internalType":"address","name":"_treasury","type":"address"}],"name":"setTreasury","outputs":[],"stateMutability":"nonpayable","type":"function"},{"inputs":[{"internalType":"address","name":"_new","type":"address"}],"name":"transferOwnership","outputs":[],"stateMutability":"nonpayable","type":"function"},{"inputs":[],"name":"treasury","outputs":[{"internalType":"address","name":"","type":"address"}],"stateMutability":"view","type":"function"},{"inputs":[{"internalType":"address","name":"","type":"address"},{"internalType":"uint256","name":"","type":"uint256"}],"name":"userCapsules","outputs":[{"internalType":"uint256","name":"","type":"uint256"}],"stateMutability":"view","type":"function"},{"stateMutability":"payable","type":"receive"}],"evm":{"bytecode":{"linkReferences":{},"object":"60803461008957601f6122a038819003918201601f19168301916001600160401b0383118484101761008e5780849260209460405283398101031261008957516001600160a01b03811690819003610089576001600055600180556103e860025560018060a01b03193381600354161760035560045416176004556040516121fb90816100a58239f35b600080fd5b634e487b7160e01b600052604160045260246000fdfe6080604052600436101561001b575b361561001957600080fd5b005b60003560e01c8063069be17e146117d9578063150b7a02146117835780632c612bd8146117565780633286721a14611702578063366636f71461168a5780633aac385814611558578063517bbf46146114765780635c18e55c1461136f57806361d027b31461134657806375fcac2c1461109c57806377a71e0d146106ae57806381e909eb14610664578063880aad75146105dc5780638da5cb5b146105b3578063995ae7b714610595578063a0d79fb51461053d578063ae3cfaed1461051f578063bc197c8114610494578063c139b91f146103ac578063c441bdd614610346578063f0f44260146102f5578063f23a6e611461029f578063f2fde38b146102585763f90c5d1c0361000e5734610253576020806003193601126102535760043560005260078152604060002090815461015581611db1565b9061016360405192836119fe565b808252600093845282842083830194855b8382106101df5760408051878152865181890181905289928201908960005b8281106101a05784840385f35b855180516001600160a01b0316855280830151858401526040808201511515908601526060908101519085015294810194608090930192600101610193565b604051608081018181106001600160401b0382111761023d576001926004928992604052848060a01b038754168152848701548382015260ff6002880154161515604082015260038701546060820152815201930191019091610174565b634e487b7160e01b600052604160045260246000fd5b600080fd5b346102535760203660031901126102535761027161188b565b600354906001600160a01b039061028b338385161461218d565b6001600160a01b0319909216911617600355005b346102535760a0366003190112610253576102b861188b565b506102c16118a1565b506084356001600160401b038111610253576102e19036906004016118b7565b505060405163f23a6e6160e01b8152602090f35b346102535760203660031901126102535761030e61188b565b6003546001600160a01b039190610328908316331461218d565b166bffffffffffffffffffffffff60a01b6004541617600455600080f35b346102535760203660031901126102535760043561036f60018060a01b0360035416331461218d565b611388811161037d57600255005b60405162461bcd60e51b81526020600482015260076024820152664d61782035302560c81b6044820152606490fd5b3461025357602080600319360112610253576004356000526006815260406000209081546103d981611db1565b906103e760405192836119fe565b808252600093845282842083830194855b83821061044c5760408051878152865181890181905289928201908960005b8281106104245784840385f35b855180516001600160a01b031685528201518483015294810194604090930192600101610417565b604051604081018181106001600160401b0382111761023d5760405283546001600160a01b0316815260018085015488830152908252600290930192919091019085016103f8565b346102535760a0366003190112610253576104ad61188b565b506104b66118a1565b506001600160401b03604435818111610253576104d7903690600401611add565b5050606435818111610253576104f1903690600401611add565b50506084359081116102535761050b9036906004016118b7565b505060405163bc197c8160e01b8152602090f35b34610253576000366003190112610253576020600154604051908152f35b346102535760403660031901126102535761055661188b565b6001600160a01b03166000908152600860205260409020805460243591908210156102535760209161058791611ac5565b90546040519160031b1c8152f35b34610253576000366003190112610253576020600254604051908152f35b34610253576000366003190112610253576003546040516001600160a01b039091168152602090f35b3461025357602080600319360112610253576001600160a01b036105fe61188b565b1660005260098152604060002090604051908181845491828152019360005281600020916000905b82821061064d576106498561063d818903826119fe565b6040519182918261190d565b0390f35b835486529485019460019384019390910190610626565b346102535760403660031901126102535761067d61188b565b6001600160a01b03166000908152600960205260409020805460243591908210156102535760209161058791611ac5565b60e03660031901126102535760036004351015610253576106cd6118a1565b6044356001600160401b038111610253576106ec9036906004016118b7565b9190608435918215158303610253576001600160401b0360a435116102535736602360a435011215610253576001600160401b0360a43560040135116102535736602460a4356004013560061b60a435010111610253576001600160401b0360c435116102535736602360c435011215610253576001600160401b0360c43560040135116102535736602460c4356004013560071b60c43501011161025357610793611c22565b9242606435111561105757801561101b57600435600103611003576001600160a01b0384168015159081610ff8575b5015610fbf575b600154926107d684611b0d565b6001556000805b60a435600401358110610e6c5750803410610e275760005b60c435600401358110610bdd575060405191610810836119cf565b8583523360208401526001600160a01b038716604084015261083760043560608501611b6a565b6000608084015261084784611b76565b61085460405191826119fe565b8481523685870111610253578486602083013760006020868301015260a08401524260c084015260643560e0840152151561010083015261012082015260a4356004013561014082015260c435600401356101608201528360005260056020526040600020815181556001810160018060a01b036020840151166bffffffffffffffffffffffff60a01b82541617905560018060a01b0360408301511660028201908154906060850151906003821015610bc75760808601516004811015610bc75760ff60a81b9060a81b169269ffffffffffffffffffff60b01b16179060ff60a01b9060a01b161717905560a0820151918251926001600160401b03841161023d576109646003840154611995565b601f8111610b80575b50916020979187938990601f8711600114610ae65791867f5ecda452a46d099b7501bf13bff76f7ae8dfe26d288fe25e37ff1604ebd58041969761016093600995600092610adb575b50508160011b916000199060031b1c19161760038501555b60c0810151600485015560e08101516005850155610a026101008201511515600686019060ff801983541691151516179055565b6101208101516007850155610140810151600885015501519101553360005260088752610a33836040600020611b91565b6001600160a01b038116151580610ac8575b610aa5575b8360405195610a5b87600435611948565b6064358988015260606040880152816060880152608087013760006080858701015260018060a01b0316936080813395601f80199101168101030190a46001600055604051908152f35b60018060a01b03811660005260098752610ac3836040600020611b91565b610a4a565b506001600160a01b038116331415610a45565b015190508d806109b6565b9590600384016000528a6000209660005b601f1984168110610b665750827f5ecda452a46d099b7501bf13bff76f7ae8dfe26d288fe25e37ff1604ebd5804197986009959360019361016096601f19811610610b4d575b505050811b0160038501556109ce565b015160001960f88460031b161c191690558d8080610b3d565b8282015189556001909801978b9750918c01918c01610af7565b600384016000526020600020601f860160051c810160208710610bc0575b601f830160051c82018110610bb457505061096d565b60008155600101610b9e565b5080610b9e565b634e487b7160e01b600052602160045260246000fd5b610bfe6040610bf88360c43560040135602460c43501611b4d565b01611b5d565b15610d95576001600160a01b03610c28610c238360c435600481013590602401611b4d565b611b2c565b166020610c418360c43560040135602460c43501611b4d565b01356060610c5b8460c43560040135602460c43501611b4d565b0135823b1561025357604051637921219560e11b81523360048201523060248201526044810192909252606482015260a06084820152600060a482018190529091829060c490829084905af18015610d8957610d7a575b505b856000526007602052604060002090610cd98160c43560040135602460c43501611b4d565b918054600160401b81101561023d57610cf791600182018155611859565b610d6457610d5f926003906060906001600160a01b03610d1682611b2c565b85546001600160a01b031916911617845560208101356001850155610d55610d4060408301611b5d565b600286019060ff801983541691151516179055565b0135910155611b0d565b6107f5565b634e487b7160e01b600052600060045260246000fd5b610d83906119eb565b87610cb2565b6040513d6000823e3d90fd5b6001600160a01b03610db5610c238360c435600481013590602401611b4d565b166020610dce8360c43560040135602460c43501611b4d565b013590803b15610253576040516323b872dd60e01b815233600482015230602482015260448101929092526000908290606490829084905af18015610d8957610e18575b50610cb4565b610e21906119eb565b87610e12565b60405162461bcd60e51b815260206004820152601960248201527f496e73756666696369656e74206e617469766520746f6b656e000000000000006044820152606490fd5b906001600160a01b03610e8d610c238460a435600481013590602401611b1c565b16610f3a57610eb6906020610eae8460a43560040135602460a43501611b1c565b013590611b40565b905b856000526006602052604060002090610edd8160a43560040135602460a43501611b1c565b918054600160401b81101561023d57610efb916001820181556118f1565b610d6457610f35926001906020906001600160a01b03610f1a82611b2c565b85546001600160a01b03191691161784550135910155611b0d565b6107dd565b90610fba6001600160a01b03610f5e610c238460a435600481013590602401611b1c565b16602090610fb582610f7c8660a43560040135602460a43501611b1c565b6040516323b872dd60e01b958101959095523360248601523060448601520135606484015282608481015b03601f1981018452836119fe565b611bc6565b610eb8565b60405162461bcd60e51b8152602060048201526011602482015270125b9d985b1a59081c9958da5c1a595b9d607a1b6044820152606490fd5b9050331415856107c2565b92506004356110135733926107c9565b6000926107c9565b60405162461bcd60e51b815260206004820152601460248201527310dbdb9d195b9d0810d251081c995c5d5a5c995960621b6044820152606490fd5b60405162461bcd60e51b815260206004820152601860248201527f556e6c6f636b206d75737420626520696e2066757475726500000000000000006044820152606490fd5b3461025357602080600319360112610253576004356110b9611c22565b806000526005825260406000206110d281541515611c45565b60029283820180549260ff8460a81c166004811015610bc7576110f59015611c85565b60ff600682015416156113015760058101544210156112b05761111a61111f91611cc2565b611e48565b936001600160a01b038086169490929061113a338714611d74565b60ff60a81b1916600360a81b1790556000818152600684526040812090949091855b83548710156112755761116f87856118f1565b50906001809201548a549081810291818304149015171561125f5761271090049161119a89876118f1565b500180549083820391821161125f5755856111b589876118f1565b505416611235576000808080858a600454165af16111d1611e95565b50156111f0576111ea916111e491611b40565b96611b0d565b9561115c565b60405162461bcd60e51b815260048101889052601760248201527f50656e616c7479207472616e73666572206661696c65640000000000000000006044820152606490fd5b816111e49161125a6111ea948961124c8d8b6118f1565b5054168a6004541690612154565b611b40565b634e487b7160e01b600052601160045260246000fd5b857f0ee09d8fc4a2a58e470b4416a10ab4fff966a3f946bcda7d3d37056b221b9779916112a28a85611ec5565b604051908152a36001600055005b60405162461bcd60e51b815260048101849052602360248201527f416c726561647920756e6c6f636b61626c652c20757365206f70656e43617073604482015262756c6560e81b6064820152608490fd5b60405162461bcd60e51b815260048101849052601860248201527f4561726c7920756e6c6f636b206e6f7420616c6c6f77656400000000000000006044820152606490fd5b34610253576000366003190112610253576004546040516001600160a01b039091168152602090f35b346102535760203660031901126102535760043561138b611c22565b8060005260056020526040600020906113a682541515611c45565b600282019182549260ff8460a81c166004811015610bc7576113c89015611c85565b6005820154421061143c576113e261111a61141093611cc2565b6001600160a01b038116949091906113fb338714611d74565b60ff60a81b1916600160a91b17905582611ec5565b7f7d3112e72b789ad7c63705ec623a9760c64dd2b02125a7a8d5e96d252c4009f6600080a36001600055005b60405162461bcd60e51b81526020600482015260126024820152714e6f742079657420756e6c6f636b61626c6560701b6044820152606490fd5b346102535760203660031901126102535760043560005260056020526040600020805460018060a01b039182600182015416926002820154916114bb60038201611a1f565b92600482015493600583015461152f60ff6006860154169261151e60078701549560096008890154980154986040519c8d9c8d5260208d0152811660408c015261150e60608c0160ff8360a01c16611948565b60ff60808c019160a81c166118e4565b6101808060a08b0152890190611955565b9560c088015260e087015215156101008601526101208501526101408401526101608301520390f35b34610253576020806003193601126102535760405190611577826119cf565b60008252600081830152600060408301526000606083015260006080830152606060a0830152600060c0830152600060e083015261010060008184015261012060008185015261014093600085820152600061016080920152600435600052600584526115e76040600020611cc2565b60405195858796875282518188015260018060a01b038091840151166040880152604083015116606087015261162560608301516080880190611948565b611637608083015160a08801906118e4565b60a082015193611655610180958660c08a01526101a0890190611955565b9560c084015160e089015260e08401518189015283015115158188015282015181870152810151828601520151908301520390f35b3461025357602080600319360112610253576001600160a01b036116ac61188b565b1660005260088152604060002090604051908181845491828152019360005281600020916000905b8282106116eb576106498561063d818903826119fe565b8354865294850194600193840193909101906116d4565b346102535761171036611843565b906000526006602052604060002090815481101561025357611731916118f1565b508054600190910154604080516001600160a01b039093168352602083019190915290f35b34610253576020366003190112610253576020611774600435611dc8565b61178160405180926118e4565bf35b346102535760803660031901126102535761179c61188b565b506117a56118a1565b506064356001600160401b038111610253576117c59036906004016118b7565b5050604051630a85bd0160e11b8152602090f35b34610253576117e736611843565b906000526007602052604060002080548210156102535760809161180a91611859565b5060018060a01b0381541690600181015490600360ff600283015416910154916040519384526020840152151560408301526060820152f35b6040906003190112610253576004359060243590565b80548210156118755760005260206000209060021b0190600090565b634e487b7160e01b600052603260045260246000fd5b600435906001600160a01b038216820361025357565b602435906001600160a01b038216820361025357565b9181601f84011215610253578235916001600160401b038311610253576020838186019501011161025357565b906004821015610bc75752565b80548210156118755760005260206000209060011b0190600090565b6020908160408183019282815285518094520193019160005b828110611934575050505090565b835185529381019392810192600101611926565b906003821015610bc75752565b919082519283825260005b848110611981575050826000602080949584010152601f8019910116010190565b602081830181015184830182015201611960565b90600182811c921680156119c5575b60208310146119af57565b634e487b7160e01b600052602260045260246000fd5b91607f16916119a4565b61018081019081106001600160401b0382111761023d57604052565b6001600160401b03811161023d57604052565b90601f801991011681019081106001600160401b0382111761023d57604052565b9060405191826000825492611a3384611995565b908184526001948581169081600014611aa25750600114611a5f575b5050611a5d925003836119fe565b565b9093915060005260209081600020936000915b818310611a8a575050611a5d93508201013880611a4f565b85548884018501529485019487945091830191611a72565b915050611a5d94506020925060ff191682840152151560051b8201013880611a4f565b80548210156118755760005260206000200190600090565b9181601f84011215610253578235916001600160401b038311610253576020808501948460051b01011161025357565b600019811461125f5760010190565b91908110156118755760061b0190565b356001600160a01b03811681036102535790565b9190820180921161125f57565b91908110156118755760071b0190565b3580151581036102535790565b6003821015610bc75752565b6001600160401b03811161023d57601f01601f191660200190565b8054600160401b81101561023d57611bae91600182018155611ac5565b819291549060031b91821b91600019901b1916179055565b906000602091828151910182855af115610d89576000513d611c1957506001600160a01b0381163b155b611bf75750565b604051635274afe760e01b81526001600160a01b039091166004820152602490fd5b60011415611bf0565b600260005414611c33576002600055565b604051633ee5aeb560e01b8152600490fd5b15611c4c57565b60405162461bcd60e51b815260206004820152601160248201527010d85c1cdd5b19481b9bdd08199bdd5b99607a1b6044820152606490fd5b15611c8c57565b60405162461bcd60e51b815260206004820152600e60248201526d105b1c9958591e481bdc195b995960921b6044820152606490fd5b90604051611ccf816119cf565b80928054825260ff60018060a01b0380600184015416602085015260028301549081166040850152611d09828260a01c1660608601611b6a565b60a81c166004811015610bc757610160916009916080850152611d2e60038201611a1f565b60a0850152600481015460c0850152600581015460e085015260ff6006820154161515610100850152600781015461012085015260088101546101408501520154910152565b15611d7b57565b60405162461bcd60e51b815260206004820152600e60248201526d139bdd08185d5d1a1bdc9a5e995960921b6044820152606490fd5b6001600160401b03811161023d5760051b60200190565b60009081526005602052611dde60408220611cc2565b608081019081516004811015611e3457159081611e25575b50611e1e5751906004821015611e0a575090565b634e487b7160e01b81526021600452602490fd5b5050600190565b60e09150015142101538611df6565b634e487b7160e01b84526021600452602484fd5b6060810180516003811015610bc757600214611e8f57516003811015610bc757600114611e7f57602001516001600160a01b031690565b604001516001600160a01b031690565b50503390565b3d15611ec0573d90611ea682611b76565b91611eb460405193846119fe565b82523d6000602084013e565b606090565b60008181526020926006845260409283832090835b8254811015611f9e57611eed81846118f1565b50546001600160a01b03908116611f6e5750848080806001611f0f86896118f1565b500154885af1611f1d611e95565b5015611f3157611f2c90611b0d565b611eda565b855162461bcd60e51b815260048101889052601660248201527513985d1a5d99481d1c985b9cd9995c8819985a5b195960521b6044820152606490fd5b90611f99611f2c92611f8083876118f1565b505416866001611f9085896118f1565b50015491612154565b611b0d565b50929592949193926001600160a01b038086169390925060079084887f0ddddc48b57dd67f8fa2ff05c78034b578c31ef5caa05b03d2ca16feadbbb98f8b80a38789525283872092875b84548110156121255760ff6002611fff8388611859565b50015416156120c457836120138287611859565b5054168960016120238489611859565b500154916003612033858a611859565b50015490803b156120c0578951637921219560e11b81523060048201526001600160a01b038c1660248201526044810194909452606484019190915260a06084840152600060a4840152829081838160c481015b03925af180156120b657906120a292916120a7575b50611b0d565b611fe8565b6120b0906119eb565b3861209c565b87513d8c823e3d90fd5b8280fd5b836120cf8287611859565b5054168960016120df8489611859565b500154823b156121215788516323b872dd60e01b81523060048201526001600160a01b038b166024820152604481019190915291829081838160648101612087565b5080fd5b50959450959150507f87c407d8bd6561811dc2d87ba2a42f60301b65a1de11d09bfd04c6122c871e13915080a3565b60405163a9059cbb60e01b60208201526001600160a01b0390921660248301526044820192909252611a5d91610fb58260648101610fa7565b1561219457565b60405162461bcd60e51b81526020600482015260096024820152682737ba1037bbb732b960b91b6044820152606490fdfea26469706673582212209069d867d74e42bbde4166896c765fcf1afa91c1fbcd67c5fde5fd3486a35e5964736f6c63430008140033","opcodes":"PUSH1 0x80 CALLVALUE PUSH2 0x89 JUMPI PUSH1 0x1F PUSH2 0x22A0 CODESIZE DUP2 SWAP1 SUB SWAP2 DUP3 ADD PUSH1 0x1F NOT AND DUP4 ADD SWAP2 PUSH1 0x1 PUSH1 0x1 PUSH1 0x40 SHL SUB DUP4 GT DUP5 DUP5 LT OR PUSH2 0x8E JUMPI DUP1 DUP5 SWAP3 PUSH1 0x20 SWAP5 PUSH1 0x40 MSTORE DUP4 CODECOPY DUP2 ADD SUB SLT PUSH2 0x89 JUMPI MLOAD PUSH1 0x1 PUSH1 0x1 PUSH1 0xA0 SHL SUB DUP2 AND SWAP1 DUP2 SWAP1 SUB PUSH2 0x89 JUMPI PUSH1 0x1 PUSH1 0x0 SSTORE PUSH1 0x1 DUP1 SSTORE PUSH2 0x3E8 PUSH1 0x2 SSTORE PUSH1 0x1 DUP1 PUSH1 0xA0 SHL SUB NOT CALLER DUP2 PUSH1 0x3 SLOAD AND OR PUSH1 0x3 SSTORE PUSH1 0x4 SLOAD AND OR PUSH1 0x4 SSTORE PUSH1 0x40 MLOAD PUSH2 0x21FB SWAP1 DUP2 PUSH2 0xA5 DUP3 CODECOPY RETURN JUMPDEST PUSH1 0x0 DUP1 REVERT JUMPDEST PUSH4 0x4E487B71 PUSH1 0xE0 SHL PUSH1 0x0 MSTORE PUSH1 0x41 PUSH1 0x4 MSTORE PUSH1 0x24 PUSH1 0x0 REVERT INVALID PUSH1 0x80 PUSH1 0x40 MSTORE PUSH1 0x4 CALLDATASIZE LT ISZERO PUSH2 0x1B JUMPI JUMPDEST CALLDATASIZE ISZERO PUSH2 0x19 JUMPI PUSH1 0x0 DUP1 REVERT JUMPDEST STOP JUMPDEST PUSH1 0x0 CALLDATALOAD PUSH1 0xE0 SHR DUP1 PUSH4 0x69BE17E EQ PUSH2 0x17D9 JUMPI DUP1 PUSH4 0x150B7A02 EQ PUSH2 0x1783 JUMPI DUP1 PUSH4 0x2C612BD8 EQ PUSH2 0x1756 JUMPI DUP1 PUSH4 0x3286721A EQ PUSH2 0x1702 JUMPI DUP1 PUSH4 0x366636F7 EQ PUSH2 0x168A JUMPI DUP1 PUSH4 0x3AAC3858 EQ PUSH2 0x1558 JUMPI DUP1 PUSH4 0x517BBF46 EQ PUSH2 0x1476 JUMPI DUP1 PUSH4 0x5C18E55C EQ PUSH2 0x136F JUMPI DUP1 PUSH4 0x61D027B3 EQ PUSH2 0x1346 JUMPI DUP1 PUSH4 0x75FCAC2C EQ PUSH2 0x109C JUMPI DUP1 PUSH4 0x77A71E0D EQ PUSH2 0x6AE JUMPI DUP1 PUSH4 0x81E909EB EQ PUSH2 0x664 JUMPI DUP1 PUSH4 0x880AAD75 EQ PUSH2 0x5DC JUMPI DUP1 PUSH4 0x8DA5CB5B EQ PUSH2 0x5B3 JUMPI DUP1 PUSH4 0x995AE7B7 EQ PUSH2 0x595 JUMPI DUP1 PUSH4 0xA0D79FB5 EQ PUSH2 0x53D JUMPI DUP1 PUSH4 0xAE3CFAED EQ PUSH2 0x51F JUMPI DUP1 PUSH4 0xBC197C81 EQ PUSH2 0x494 JUMPI DUP1 PUSH4 0xC139B91F EQ PUSH2 0x3AC JUMPI DUP1 PUSH4 0xC441BDD6 EQ PUSH2 0x346 JUMPI DUP1 PUSH4 0xF0F44260 EQ PUSH2 0x2F5 JUMPI DUP1 PUSH4 0xF23A6E61 EQ PUSH2 0x29F JUMPI DUP1 PUSH4 0xF2FDE38B EQ PUSH2 0x258 JUMPI PUSH4 0xF90C5D1C SUB PUSH2 0xE JUMPI CALLVALUE PUSH2 0x253 JUMPI PUSH1 0x20 DUP1 PUSH1 0x3 NOT CALLDATASIZE ADD SLT PUSH2 0x253 JUMPI PUSH1 0x4 CALLDATALOAD PUSH1 0x0 MSTORE PUSH1 0x7 DUP2 MSTORE PUSH1 0x40 PUSH1 0x0 KECCAK256 SWAP1 DUP2 SLOAD PUSH2 0x155 DUP2 PUSH2 0x1DB1 JUMP JUMPDEST SWAP1 PUSH2 0x163 PUSH1 0x40 MLOAD SWAP3 DUP4 PUSH2 0x19FE JUMP JUMPDEST DUP1 DUP3 MSTORE PUSH1 0x0 SWAP4 DUP5 MSTORE DUP3 DUP5 KECCAK256 DUP4 DUP4 ADD SWAP5 DUP6 JUMPDEST DUP4 DUP3 LT PUSH2 0x1DF JUMPI PUSH1 0x40 DUP1 MLOAD DUP8 DUP2 MSTORE DUP7 MLOAD DUP2 DUP10 ADD DUP2 SWAP1 MSTORE DUP10 SWAP3 DUP3 ADD SWAP1 DUP10 PUSH1 0x0 JUMPDEST DUP3 DUP2 LT PUSH2 0x1A0 JUMPI DUP5 DUP5 SUB DUP6 RETURN JUMPDEST DUP6 MLOAD DUP1 MLOAD PUSH1 0x1 PUSH1 0x1 PUSH1 0xA0 SHL SUB AND DUP6 MSTORE DUP1 DUP4 ADD MLOAD DUP6 DUP5 ADD MSTORE PUSH1 0x40 DUP1 DUP3 ADD MLOAD ISZERO ISZERO SWAP1 DUP7 ADD MSTORE PUSH1 0x60 SWAP1 DUP2 ADD MLOAD SWAP1 DUP6 ADD MSTORE SWAP5 DUP2 ADD SWAP5 PUSH1 0x80 SWAP1 SWAP4 ADD SWAP3 PUSH1 0x1 ADD PUSH2 0x193 JUMP JUMPDEST PUSH1 0x40 MLOAD PUSH1 0x80 DUP2 ADD DUP2 DUP2 LT PUSH1 0x1 PUSH1 0x1 PUSH1 0x40 SHL SUB DUP3 GT OR PUSH2 0x23D JUMPI PUSH1 0x1 SWAP3 PUSH1 0x4 SWAP3 DUP10 SWAP3 PUSH1 0x40 MSTORE DUP5 DUP1 PUSH1 0xA0 SHL SUB DUP8 SLOAD AND DUP2 MSTORE DUP5 DUP8 ADD SLOAD DUP4 DUP3 ADD MSTORE PUSH1 0xFF PUSH1 0x2 DUP9 ADD SLOAD AND ISZERO ISZERO PUSH1 0x40 DUP3 ADD MSTORE PUSH1 0x3 DUP8 ADD SLOAD PUSH1 0x60 DUP3 ADD MSTORE DUP2 MSTORE ADD SWAP4 ADD SWAP2 ADD SWAP1 SWAP2 PUSH2 0x174 JUMP JUMPDEST PUSH4 0x4E487B71 PUSH1 0xE0 SHL PUSH1 0x0 MSTORE PUSH1 0x41 PUSH1 0x4 MSTORE PUSH1 0x24 PUSH1 0x0 REVERT JUMPDEST PUSH1 0x0 DUP1 REVERT JUMPDEST CALLVALUE PUSH2 0x253 JUMPI PUSH1 0x20 CALLDATASIZE PUSH1 0x3 NOT ADD SLT PUSH2 0x253 JUMPI PUSH2 0x271 PUSH2 0x188B JUMP JUMPDEST PUSH1 0x3 SLOAD SWAP1 PUSH1 0x1 PUSH1 0x1 PUSH1 0xA0 SHL SUB SWAP1 PUSH2 0x28B CALLER DUP4 DUP6 AND EQ PUSH2 0x218D JUMP JUMPDEST PUSH1 0x1 PUSH1 0x1 PUSH1 0xA0 SHL SUB NOT SWAP1 SWAP3 AND SWAP2 AND OR PUSH1 0x3 SSTORE STOP JUMPDEST CALLVALUE PUSH2 0x253 JUMPI PUSH1 0xA0 CALLDATASIZE PUSH1 0x3 NOT ADD SLT PUSH2 0x253 JUMPI PUSH2 0x2B8 PUSH2 0x188B JUMP JUMPDEST POP PUSH2 0x2C1 PUSH2 0x18A1 JUMP JUMPDEST POP PUSH1 0x84 CALLDATALOAD PUSH1 0x1 PUSH1 0x1 PUSH1 0x40 SHL SUB DUP2 GT PUSH2 0x253 JUMPI PUSH2 0x2E1 SWAP1 CALLDATASIZE SWAP1 PUSH1 0x4 ADD PUSH2 0x18B7 JUMP JUMPDEST POP POP PUSH1 0x40 MLOAD PUSH4 0xF23A6E61 PUSH1 0xE0 SHL DUP2 MSTORE PUSH1 0x20 SWAP1 RETURN JUMPDEST CALLVALUE PUSH2 0x253 JUMPI PUSH1 0x20 CALLDATASIZE PUSH1 0x3 NOT ADD SLT PUSH2 0x253 JUMPI PUSH2 0x30E PUSH2 0x188B JUMP JUMPDEST PUSH1 0x3 SLOAD PUSH1 0x1 PUSH1 0x1 PUSH1 0xA0 SHL SUB SWAP2 SWAP1 PUSH2 0x328 SWAP1 DUP4 AND CALLER EQ PUSH2 0x218D JUMP JUMPDEST AND PUSH12 0xFFFFFFFFFFFFFFFFFFFFFFFF PUSH1 0xA0 SHL PUSH1 0x4 SLOAD AND OR PUSH1 0x4 SSTORE PUSH1 0x0 DUP1 RETURN JUMPDEST CALLVALUE PUSH2 0x253 JUMPI PUSH1 0x20 CALLDATASIZE PUSH1 0x3 NOT ADD SLT PUSH2 0x253 JUMPI PUSH1 0x4 CALLDATALOAD PUSH2 0x36F PUSH1 0x1 DUP1 PUSH1 0xA0 SHL SUB PUSH1 0x3 SLOAD AND CALLER EQ PUSH2 0x218D JUMP JUMPDEST PUSH2 0x1388 DUP2 GT PUSH2 0x37D JUMPI PUSH1 0x2 SSTORE STOP JUMPDEST PUSH1 0x40 MLOAD PUSH3 0x461BCD PUSH1 0xE5 SHL DUP2 MSTORE PUSH1 0x20 PUSH1 0x4 DUP3 ADD MSTORE PUSH1 0x7 PUSH1 0x24 DUP3 ADD MSTORE PUSH7 0x4D617820353025 PUSH1 0xC8 SHL PUSH1 0x44 DUP3 ADD MSTORE PUSH1 0x64 SWAP1 REVERT JUMPDEST CALLVALUE PUSH2 0x253 JUMPI PUSH1 0x20 DUP1 PUSH1 0x3 NOT CALLDATASIZE ADD SLT PUSH2 0x253 JUMPI PUSH1 0x4 CALLDATALOAD PUSH1 0x0 MSTORE PUSH1 0x6 DUP2 MSTORE PUSH1 0x40 PUSH1 0x0 KECCAK256 SWAP1 DUP2 SLOAD PUSH2 0x3D9 DUP2 PUSH2 0x1DB1 JUMP JUMPDEST SWAP1 PUSH2 0x3E7 PUSH1 0x40 MLOAD SWAP3 DUP4 PUSH2 0x19FE JUMP JUMPDEST DUP1 DUP3 MSTORE PUSH1 0x0 SWAP4 DUP5 MSTORE DUP3 DUP5 KECCAK256 DUP4 DUP4 ADD SWAP5 DUP6 JUMPDEST DUP4 DUP3 LT PUSH2 0x44C JUMPI PUSH1 0x40 DUP1 MLOAD DUP8 DUP2 MSTORE DUP7 MLOAD DUP2 DUP10 ADD DUP2 SWAP1 MSTORE DUP10 SWAP3 DUP3 ADD SWAP1 DUP10 PUSH1 0x0 JUMPDEST DUP3 DUP2 LT PUSH2 0x424 JUMPI DUP5 DUP5 SUB DUP6 RETURN JUMPDEST DUP6 MLOAD DUP1 MLOAD PUSH1 0x1 PUSH1 0x1 PUSH1 0xA0 SHL SUB AND DUP6 MSTORE DUP3 ADD MLOAD DUP5 DUP4 ADD MSTORE SWAP5 DUP2 ADD SWAP5 PUSH1 0x40 SWAP1 SWAP4 ADD SWAP3 PUSH1 0x1 ADD PUSH2 0x417 JUMP JUMPDEST PUSH1 0x40 MLOAD PUSH1 0x40 DUP2 ADD DUP2 DUP2 LT PUSH1 0x1 PUSH1 0x1 PUSH1 0x40 SHL SUB DUP3 GT OR PUSH2 0x23D JUMPI PUSH1 0x40 MSTORE DUP4 SLOAD PUSH1 0x1 PUSH1 0x1 PUSH1 0xA0 SHL SUB AND DUP2 MSTORE PUSH1 0x1 DUP1 DUP6 ADD SLOAD DUP9 DUP4 ADD MSTORE SWAP1 DUP3 MSTORE PUSH1 0x2 SWAP1 SWAP4 ADD SWAP3 SWAP2 SWAP1 SWAP2 ADD SWAP1 DUP6 ADD PUSH2 0x3F8 JUMP JUMPDEST CALLVALUE PUSH2 0x253 JUMPI PUSH1 0xA0 CALLDATASIZE PUSH1 0x3 NOT ADD SLT PUSH2 0x253 JUMPI PUSH2 0x4AD PUSH2 0x188B JUMP JUMPDEST POP PUSH2 0x4B6 PUSH2 0x18A1 JUMP JUMPDEST POP PUSH1 0x1 PUSH1 0x1 PUSH1 0x40 SHL SUB PUSH1 0x44 CALLDATALOAD DUP2 DUP2 GT PUSH2 0x253 JUMPI PUSH2 0x4D7 SWAP1 CALLDATASIZE SWAP1 PUSH1 0x4 ADD PUSH2 0x1ADD JUMP JUMPDEST POP POP PUSH1 0x64 CALLDATALOAD DUP2 DUP2 GT PUSH2 0x253 JUMPI PUSH2 0x4F1 SWAP1 CALLDATASIZE SWAP1 PUSH1 0x4 ADD PUSH2 0x1ADD JUMP JUMPDEST POP POP PUSH1 0x84 CALLDATALOAD SWAP1 DUP2 GT PUSH2 0x253 JUMPI PUSH2 0x50B SWAP1 CALLDATASIZE SWAP1 PUSH1 0x4 ADD PUSH2 0x18B7 JUMP JUMPDEST POP POP PUSH1 0x40 MLOAD PUSH4 0xBC197C81 PUSH1 0xE0 SHL DUP2 MSTORE PUSH1 0x20 SWAP1 RETURN JUMPDEST CALLVALUE PUSH2 0x253 JUMPI PUSH1 0x0 CALLDATASIZE PUSH1 0x3 NOT ADD SLT PUSH2 0x253 JUMPI PUSH1 0x20 PUSH1 0x1 SLOAD PUSH1 0x40 MLOAD SWAP1 DUP2 MSTORE RETURN JUMPDEST CALLVALUE PUSH2 0x253 JUMPI PUSH1 0x40 CALLDATASIZE PUSH1 0x3 NOT ADD SLT PUSH2 0x253 JUMPI PUSH2 0x556 PUSH2 0x188B JUMP JUMPDEST PUSH1 0x1 PUSH1 0x1 PUSH1 0xA0 SHL SUB AND PUSH1 0x0 SWAP1 DUP2 MSTORE PUSH1 0x8 PUSH1 0x20 MSTORE PUSH1 0x40 SWAP1 KECCAK256 DUP1 SLOAD PUSH1 0x24 CALLDATALOAD SWAP2 SWAP1 DUP3 LT ISZERO PUSH2 0x253 JUMPI PUSH1 0x20 SWAP2 PUSH2 0x587 SWAP2 PUSH2 0x1AC5 JUMP JUMPDEST SWAP1 SLOAD PUSH1 0x40 MLOAD SWAP2 PUSH1 0x3 SHL SHR DUP2 MSTORE RETURN JUMPDEST CALLVALUE PUSH2 0x253 JUMPI PUSH1 0x0 CALLDATASIZE PUSH1 0x3 NOT ADD SLT PUSH2 0x253 JUMPI PUSH1 0x20 PUSH1 0x2 SLOAD PUSH1 0x40 MLOAD SWAP1 DUP2 MSTORE RETURN JUMPDEST CALLVALUE PUSH2 0x253 JUMPI PUSH1 0x0 CALLDATASIZE PUSH1 0x3 NOT ADD SLT PUSH2 0x253 JUMPI PUSH1 0x3 SLOAD PUSH1 0x40 MLOAD PUSH1 0x1 PUSH1 0x1 PUSH1 0xA0 SHL SUB SWAP1 SWAP2 AND DUP2 MSTORE PUSH1 0x20 SWAP1 RETURN JUMPDEST CALLVALUE PUSH2 0x253 JUMPI PUSH1 0x20 DUP1 PUSH1 0x3 NOT CALLDATASIZE ADD SLT PUSH2 0x253 JUMPI PUSH1 0x1 PUSH1 0x1 PUSH1 0xA0 SHL SUB PUSH2 0x5FE PUSH2 0x188B JUMP JUMPDEST AND PUSH1 0x0 MSTORE PUSH1 0x9 DUP2 MSTORE PUSH1 0x40 PUSH1 0x0 KECCAK256 SWAP1 PUSH1 0x40 MLOAD SWAP1 DUP2 DUP2 DUP5 SLOAD SWAP2 DUP3 DUP2 MSTORE ADD SWAP4 PUSH1 0x0 MSTORE DUP2 PUSH1 0x0 KECCAK256 SWAP2 PUSH1 0x0 SWAP1 JUMPDEST DUP3 DUP3 LT PUSH2 0x64D JUMPI PUSH2 0x649 DUP6 PUSH2 0x63D DUP2 DUP10 SUB DUP3 PUSH2 0x19FE JUMP JUMPDEST PUSH1 0x40 MLOAD SWAP2 DUP3 SWAP2 DUP3 PUSH2 0x190D JUMP JUMPDEST SUB SWAP1 RETURN JUMPDEST DUP4 SLOAD DUP7 MSTORE SWAP5 DUP6 ADD SWAP5 PUSH1 0x1 SWAP4 DUP5 ADD SWAP4 SWAP1 SWAP2 ADD SWAP1 PUSH2 0x626 JUMP JUMPDEST CALLVALUE PUSH2 0x253 JUMPI PUSH1 0x40 CALLDATASIZE PUSH1 0x3 NOT ADD SLT PUSH2 0x253 JUMPI PUSH2 0x67D PUSH2 0x188B JUMP JUMPDEST PUSH1 0x1 PUSH1 0x1 PUSH1 0xA0 SHL SUB AND PUSH1 0x0 SWAP1 DUP2 MSTORE PUSH1 0x9 PUSH1 0x20 MSTORE PUSH1 0x40 SWAP1 KECCAK256 DUP1 SLOAD PUSH1 0x24 CALLDATALOAD SWAP2 SWAP1 DUP3 LT ISZERO PUSH2 0x253 JUMPI PUSH1 0x20 SWAP2 PUSH2 0x587 SWAP2 PUSH2 0x1AC5 JUMP JUMPDEST PUSH1 0xE0 CALLDATASIZE PUSH1 0x3 NOT ADD SLT PUSH2 0x253 JUMPI PUSH1 0x3 PUSH1 0x4 CALLDATALOAD LT ISZERO PUSH2 0x253 JUMPI PUSH2 0x6CD PUSH2 0x18A1 JUMP JUMPDEST PUSH1 0x44 CALLDATALOAD PUSH1 0x1 PUSH1 0x1 PUSH1 0x40 SHL SUB DUP2 GT PUSH2 0x253 JUMPI PUSH2 0x6EC SWAP1 CALLDATASIZE SWAP1 PUSH1 0x4 ADD PUSH2 0x18B7 JUMP JUMPDEST SWAP2 SWAP1 PUSH1 0x84 CALLDATALOAD SWAP2 DUP3 ISZERO ISZERO DUP4 SUB PUSH2 0x253 JUMPI PUSH1 0x1 PUSH1 0x1 PUSH1 0x40 SHL SUB PUSH1 0xA4 CALLDATALOAD GT PUSH2 0x253 JUMPI CALLDATASIZE PUSH1 0x23 PUSH1 0xA4 CALLDATALOAD ADD SLT ISZERO PUSH2 0x253 JUMPI PUSH1 0x1 PUSH1 0x1 PUSH1 0x40 SHL SUB PUSH1 0xA4 CALLDATALOAD PUSH1 0x4 ADD CALLDATALOAD GT PUSH2 0x253 JUMPI CALLDATASIZE PUSH1 0x24 PUSH1 0xA4 CALLDATALOAD PUSH1 0x4 ADD CALLDATALOAD PUSH1 0x6 SHL PUSH1 0xA4 CALLDATALOAD ADD ADD GT PUSH2 0x253 JUMPI PUSH1 0x1 PUSH1 0x1 PUSH1 0x40 SHL SUB PUSH1 0xC4 CALLDATALOAD GT PUSH2 0x253 JUMPI CALLDATASIZE PUSH1 0x23 PUSH1 0xC4 CALLDATALOAD ADD SLT ISZERO PUSH2 0x253 JUMPI PUSH1 0x1 PUSH1 0x1 PUSH1 0x40 SHL SUB PUSH1 0xC4 CALLDATALOAD PUSH1 0x4 ADD CALLDATALOAD GT PUSH2 0x253 JUMPI CALLDATASIZE PUSH1 0x24 PUSH1 0xC4 CALLDATALOAD PUSH1 0x4 ADD CALLDATALOAD PUSH1 0x7 SHL PUSH1 0xC4 CALLDATALOAD ADD ADD GT PUSH2 0x253 JUMPI PUSH2 0x793 PUSH2 0x1C22 JUMP JUMPDEST SWAP3 TIMESTAMP PUSH1 0x64 CALLDATALOAD GT ISZERO PUSH2 0x1057 JUMPI DUP1 ISZERO PUSH2 0x101B JUMPI PUSH1 0x4 CALLDATALOAD PUSH1 0x1 SUB PUSH2 0x1003 JUMPI PUSH1 0x1 PUSH1 0x1 PUSH1 0xA0 SHL SUB DUP5 AND DUP1 ISZERO ISZERO SWAP1 DUP2 PUSH2 0xFF8 JUMPI JUMPDEST POP ISZERO PUSH2 0xFBF JUMPI JUMPDEST PUSH1 0x1 SLOAD SWAP3 PUSH2 0x7D6 DUP5 PUSH2 0x1B0D JUMP JUMPDEST PUSH1 0x1 SSTORE PUSH1 0x0 DUP1 JUMPDEST PUSH1 0xA4 CALLDATALOAD PUSH1 0x4 ADD CALLDATALOAD DUP2 LT PUSH2 0xE6C JUMPI POP DUP1 CALLVALUE LT PUSH2 0xE27 JUMPI PUSH1 0x0 JUMPDEST PUSH1 0xC4 CALLDATALOAD PUSH1 0x4 ADD CALLDATALOAD DUP2 LT PUSH2 0xBDD JUMPI POP PUSH1 0x40 MLOAD SWAP2 PUSH2 0x810 DUP4 PUSH2 0x19CF JUMP JUMPDEST DUP6 DUP4 MSTORE CALLER PUSH1 0x20 DUP5 ADD MSTORE PUSH1 0x1 PUSH1 0x1 PUSH1 0xA0 SHL SUB DUP8 AND PUSH1 0x40 DUP5 ADD MSTORE PUSH2 0x837 PUSH1 0x4 CALLDATALOAD PUSH1 0x60 DUP6 ADD PUSH2 0x1B6A JUMP JUMPDEST PUSH1 0x0 PUSH1 0x80 DUP5 ADD MSTORE PUSH2 0x847 DUP5 PUSH2 0x1B76 JUMP JUMPDEST PUSH2 0x854 PUSH1 0x40 MLOAD SWAP2 DUP3 PUSH2 0x19FE JUMP JUMPDEST DUP5 DUP2 MSTORE CALLDATASIZE DUP6 DUP8 ADD GT PUSH2 0x253 JUMPI DUP5 DUP7 PUSH1 0x20 DUP4 ADD CALLDATACOPY PUSH1 0x0 PUSH1 0x20 DUP7 DUP4 ADD ADD MSTORE PUSH1 0xA0 DUP5 ADD MSTORE TIMESTAMP PUSH1 0xC0 DUP5 ADD MSTORE PUSH1 0x64 CALLDATALOAD PUSH1 0xE0 DUP5 ADD MSTORE ISZERO ISZERO PUSH2 0x100 DUP4 ADD MSTORE PUSH2 0x120 DUP3 ADD MSTORE PUSH1 0xA4 CALLDATALOAD PUSH1 0x4 ADD CALLDATALOAD PUSH2 0x140 DUP3 ADD MSTORE PUSH1 0xC4 CALLDATALOAD PUSH1 0x4 ADD CALLDATALOAD PUSH2 0x160 DUP3 ADD MSTORE DUP4 PUSH1 0x0 MSTORE PUSH1 0x5 PUSH1 0x20 MSTORE PUSH1 0x40 PUSH1 0x0 KECCAK256 DUP2 MLOAD DUP2 SSTORE PUSH1 0x1 DUP2 ADD PUSH1 0x1 DUP1 PUSH1 0xA0 SHL SUB PUSH1 0x20 DUP5 ADD MLOAD AND PUSH12 0xFFFFFFFFFFFFFFFFFFFFFFFF PUSH1 0xA0 SHL DUP3 SLOAD AND OR SWAP1 SSTORE PUSH1 0x1 DUP1 PUSH1 0xA0 SHL SUB PUSH1 0x40 DUP4 ADD MLOAD AND PUSH1 0x2 DUP3 ADD SWAP1 DUP2 SLOAD SWAP1 PUSH1 0x60 DUP6 ADD MLOAD SWAP1 PUSH1 0x3 DUP3 LT ISZERO PUSH2 0xBC7 JUMPI PUSH1 0x80 DUP7 ADD MLOAD PUSH1 0x4 DUP2 LT ISZERO PUSH2 0xBC7 JUMPI PUSH1 0xFF PUSH1 0xA8 SHL SWAP1 PUSH1 0xA8 SHL AND SWAP3 PUSH10 0xFFFFFFFFFFFFFFFFFFFF PUSH1 0xB0 SHL AND OR SWAP1 PUSH1 0xFF PUSH1 0xA0 SHL SWAP1 PUSH1 0xA0 SHL AND OR OR SWAP1 SSTORE PUSH1 0xA0 DUP3 ADD MLOAD SWAP2 DUP3 MLOAD SWAP3 PUSH1 0x1 PUSH1 0x1 PUSH1 0x40 SHL SUB DUP5 GT PUSH2 0x23D JUMPI PUSH2 0x964 PUSH1 0x3 DUP5 ADD SLOAD PUSH2 0x1995 JUMP JUMPDEST PUSH1 0x1F DUP2 GT PUSH2 0xB80 JUMPI JUMPDEST POP SWAP2 PUSH1 0x20 SWAP8 SWAP2 DUP8 SWAP4 DUP10 SWAP1 PUSH1 0x1F DUP8 GT PUSH1 0x1 EQ PUSH2 0xAE6 JUMPI SWAP2 DUP7 PUSH32 0x5ECDA452A46D099B7501BF13BFF76F7AE8DFE26D288FE25E37FF1604EBD58041 SWAP7 SWAP8 PUSH2 0x160 SWAP4 PUSH1 0x9 SWAP6 PUSH1 0x0 SWAP3 PUSH2 0xADB JUMPI JUMPDEST POP POP DUP2 PUSH1 0x1 SHL SWAP2 PUSH1 0x0 NOT SWAP1 PUSH1 0x3 SHL SHR NOT AND OR PUSH1 0x3 DUP6 ADD SSTORE JUMPDEST PUSH1 0xC0 DUP2 ADD MLOAD PUSH1 0x4 DUP6 ADD SSTORE PUSH1 0xE0 DUP2 ADD MLOAD PUSH1 0x5 DUP6 ADD SSTORE PUSH2 0xA02 PUSH2 0x100 DUP3 ADD MLOAD ISZERO ISZERO PUSH1 0x6 DUP7 ADD SWAP1 PUSH1 0xFF DUP1 NOT DUP4 SLOAD AND SWAP2 ISZERO ISZERO AND OR SWAP1 SSTORE JUMP JUMPDEST PUSH2 0x120 DUP2 ADD MLOAD PUSH1 0x7 DUP6 ADD SSTORE PUSH2 0x140 DUP2 ADD MLOAD PUSH1 0x8 DUP6 ADD SSTORE ADD MLOAD SWAP2 ADD SSTORE CALLER PUSH1 0x0 MSTORE PUSH1 0x8 DUP8 MSTORE PUSH2 0xA33 DUP4 PUSH1 0x40 PUSH1 0x0 KECCAK256 PUSH2 0x1B91 JUMP JUMPDEST PUSH1 0x1 PUSH1 0x1 PUSH1 0xA0 SHL SUB DUP2 AND ISZERO ISZERO DUP1 PUSH2 0xAC8 JUMPI JUMPDEST PUSH2 0xAA5 JUMPI JUMPDEST DUP4 PUSH1 0x40 MLOAD SWAP6 PUSH2 0xA5B DUP8 PUSH1 0x4 CALLDATALOAD PUSH2 0x1948 JUMP JUMPDEST PUSH1 0x64 CALLDATALOAD DUP10 DUP9 ADD MSTORE PUSH1 0x60 PUSH1 0x40 DUP9 ADD MSTORE DUP2 PUSH1 0x60 DUP9 ADD MSTORE PUSH1 0x80 DUP8 ADD CALLDATACOPY PUSH1 0x0 PUSH1 0x80 DUP6 DUP8 ADD ADD MSTORE PUSH1 0x1 DUP1 PUSH1 0xA0 SHL SUB AND SWAP4 PUSH1 0x80 DUP2 CALLER SWAP6 PUSH1 0x1F DUP1 NOT SWAP2 ADD AND DUP2 ADD SUB ADD SWAP1 LOG4 PUSH1 0x1 PUSH1 0x0 SSTORE PUSH1 0x40 MLOAD SWAP1 DUP2 MSTORE RETURN JUMPDEST PUSH1 0x1 DUP1 PUSH1 0xA0 SHL SUB DUP2 AND PUSH1 0x0 MSTORE PUSH1 0x9 DUP8 MSTORE PUSH2 0xAC3 DUP4 PUSH1 0x40 PUSH1 0x0 KECCAK256 PUSH2 0x1B91 JUMP JUMPDEST PUSH2 0xA4A JUMP JUMPDEST POP PUSH1 0x1 PUSH1 0x1 PUSH1 0xA0 SHL SUB DUP2 AND CALLER EQ ISZERO PUSH2 0xA45 JUMP JUMPDEST ADD MLOAD SWAP1 POP DUP14 DUP1 PUSH2 0x9B6 JUMP JUMPDEST SWAP6 SWAP1 PUSH1 0x3 DUP5 ADD PUSH1 0x0 MSTORE DUP11 PUSH1 0x0 KECCAK256 SWAP7 PUSH1 0x0 JUMPDEST PUSH1 0x1F NOT DUP5 AND DUP2 LT PUSH2 0xB66 JUMPI POP DUP3 PUSH32 0x5ECDA452A46D099B7501BF13BFF76F7AE8DFE26D288FE25E37FF1604EBD58041 SWAP8 SWAP9 PUSH1 0x9 SWAP6 SWAP4 PUSH1 0x1 SWAP4 PUSH2 0x160 SWAP7 PUSH1 0x1F NOT DUP2 AND LT PUSH2 0xB4D JUMPI JUMPDEST POP POP POP DUP2 SHL ADD PUSH1 0x3 DUP6 ADD SSTORE PUSH2 0x9CE JUMP JUMPDEST ADD MLOAD PUSH1 0x0 NOT PUSH1 0xF8 DUP5 PUSH1 0x3 SHL AND SHR NOT AND SWAP1 SSTORE DUP14 DUP1 DUP1 PUSH2 0xB3D JUMP JUMPDEST DUP3 DUP3 ADD MLOAD DUP10 SSTORE PUSH1 0x1 SWAP1 SWAP9 ADD SWAP8 DUP12 SWAP8 POP SWAP2 DUP13 ADD SWAP2 DUP13 ADD PUSH2 0xAF7 JUMP JUMPDEST PUSH1 0x3 DUP5 ADD PUSH1 0x0 MSTORE PUSH1 0x20 PUSH1 0x0 KECCAK256 PUSH1 0x1F DUP7 ADD PUSH1 0x5 SHR DUP2 ADD PUSH1 0x20 DUP8 LT PUSH2 0xBC0 JUMPI JUMPDEST PUSH1 0x1F DUP4 ADD PUSH1 0x5 SHR DUP3 ADD DUP2 LT PUSH2 0xBB4 JUMPI POP POP PUSH2 0x96D JUMP JUMPDEST PUSH1 0x0 DUP2 SSTORE PUSH1 0x1 ADD PUSH2 0xB9E JUMP JUMPDEST POP DUP1 PUSH2 0xB9E JUMP JUMPDEST PUSH4 0x4E487B71 PUSH1 0xE0 SHL PUSH1 0x0 MSTORE PUSH1 0x21 PUSH1 0x4 MSTORE PUSH1 0x24 PUSH1 0x0 REVERT JUMPDEST PUSH2 0xBFE PUSH1 0x40 PUSH2 0xBF8 DUP4 PUSH1 0xC4 CALLDATALOAD PUSH1 0x4 ADD CALLDATALOAD PUSH1 0x24 PUSH1 0xC4 CALLDATALOAD ADD PUSH2 0x1B4D JUMP JUMPDEST ADD PUSH2 0x1B5D JUMP JUMPDEST ISZERO PUSH2 0xD95 JUMPI PUSH1 0x1 PUSH1 0x1 PUSH1 0xA0 SHL SUB PUSH2 0xC28 PUSH2 0xC23 DUP4 PUSH1 0xC4 CALLDATALOAD PUSH1 0x4 DUP2 ADD CALLDATALOAD SWAP1 PUSH1 0x24 ADD PUSH2 0x1B4D JUMP JUMPDEST PUSH2 0x1B2C JUMP JUMPDEST AND PUSH1 0x20 PUSH2 0xC41 DUP4 PUSH1 0xC4 CALLDATALOAD PUSH1 0x4 ADD CALLDATALOAD PUSH1 0x24 PUSH1 0xC4 CALLDATALOAD ADD PUSH2 0x1B4D JUMP JUMPDEST ADD CALLDATALOAD PUSH1 0x60 PUSH2 0xC5B DUP5 PUSH1 0xC4 CALLDATALOAD PUSH1 0x4 ADD CALLDATALOAD PUSH1 0x24 PUSH1 0xC4 CALLDATALOAD ADD PUSH2 0x1B4D JUMP JUMPDEST ADD CALLDATALOAD DUP3 EXTCODESIZE ISZERO PUSH2 0x253 JUMPI PUSH1 0x40 MLOAD PUSH4 0x79212195 PUSH1 0xE1 SHL DUP2 MSTORE CALLER PUSH1 0x4 DUP3 ADD MSTORE ADDRESS PUSH1 0x24 DUP3 ADD MSTORE PUSH1 0x44 DUP2 ADD SWAP3 SWAP1 SWAP3 MSTORE PUSH1 0x64 DUP3 ADD MSTORE PUSH1 0xA0 PUSH1 0x84 DUP3 ADD MSTORE PUSH1 0x0 PUSH1 0xA4 DUP3 ADD DUP2 SWAP1 MSTORE SWAP1 SWAP2 DUP3 SWAP1 PUSH1 0xC4 SWAP1 DUP3 SWAP1 DUP5 SWAP1 GAS CALL DUP1 ISZERO PUSH2 0xD89 JUMPI PUSH2 0xD7A JUMPI JUMPDEST POP JUMPDEST DUP6 PUSH1 0x0 MSTORE PUSH1 0x7 PUSH1 0x20 MSTORE PUSH1 0x40 PUSH1 0x0 KECCAK256 SWAP1 PUSH2 0xCD9 DUP2 PUSH1 0xC4 CALLDATALOAD PUSH1 0x4 ADD CALLDATALOAD PUSH1 0x24 PUSH1 0xC4 CALLDATALOAD ADD PUSH2 0x1B4D JUMP JUMPDEST SWAP2 DUP1 SLOAD PUSH1 0x1 PUSH1 0x40 SHL DUP2 LT ISZERO PUSH2 0x23D JUMPI PUSH2 0xCF7 SWAP2 PUSH1 0x1 DUP3 ADD DUP2 SSTORE PUSH2 0x1859 JUMP JUMPDEST PUSH2 0xD64 JUMPI PUSH2 0xD5F SWAP3 PUSH1 0x3 SWAP1 PUSH1 0x60 SWAP1 PUSH1 0x1 PUSH1 0x1 PUSH1 0xA0 SHL SUB PUSH2 0xD16 DUP3 PUSH2 0x1B2C JUMP JUMPDEST DUP6 SLOAD PUSH1 0x1 PUSH1 0x1 PUSH1 0xA0 SHL SUB NOT AND SWAP2 AND OR DUP5 SSTORE PUSH1 0x20 DUP2 ADD CALLDATALOAD PUSH1 0x1 DUP6 ADD SSTORE PUSH2 0xD55 PUSH2 0xD40 PUSH1 0x40 DUP4 ADD PUSH2 0x1B5D JUMP JUMPDEST PUSH1 0x2 DUP7 ADD SWAP1 PUSH1 0xFF DUP1 NOT DUP4 SLOAD AND SWAP2 ISZERO ISZERO AND OR SWAP1 SSTORE JUMP JUMPDEST ADD CALLDATALOAD SWAP2 ADD SSTORE PUSH2 0x1B0D JUMP JUMPDEST PUSH2 0x7F5 JUMP JUMPDEST PUSH4 0x4E487B71 PUSH1 0xE0 SHL PUSH1 0x0 MSTORE PUSH1 0x0 PUSH1 0x4 MSTORE PUSH1 0x24 PUSH1 0x0 REVERT JUMPDEST PUSH2 0xD83 SWAP1 PUSH2 0x19EB JUMP JUMPDEST DUP8 PUSH2 0xCB2 JUMP JUMPDEST PUSH1 0x40 MLOAD RETURNDATASIZE PUSH1 0x0 DUP3 RETURNDATACOPY RETURNDATASIZE SWAP1 REVERT JUMPDEST PUSH1 0x1 PUSH1 0x1 PUSH1 0xA0 SHL SUB PUSH2 0xDB5 PUSH2 0xC23 DUP4 PUSH1 0xC4 CALLDATALOAD PUSH1 0x4 DUP2 ADD CALLDATALOAD SWAP1 PUSH1 0x24 ADD PUSH2 0x1B4D JUMP JUMPDEST AND PUSH1 0x20 PUSH2 0xDCE DUP4 PUSH1 0xC4 CALLDATALOAD PUSH1 0x4 ADD CALLDATALOAD PUSH1 0x24 PUSH1 0xC4 CALLDATALOAD ADD PUSH2 0x1B4D JUMP JUMPDEST ADD CALLDATALOAD SWAP1 DUP1 EXTCODESIZE ISZERO PUSH2 0x253 JUMPI PUSH1 0x40 MLOAD PUSH4 0x23B872DD PUSH1 0xE0 SHL DUP2 MSTORE CALLER PUSH1 0x4 DUP3 ADD MSTORE ADDRESS PUSH1 0x24 DUP3 ADD MSTORE PUSH1 0x44 DUP2 ADD SWAP3 SWAP1 SWAP3 MSTORE PUSH1 0x0 SWAP1 DUP3 SWAP1 PUSH1 0x64 SWAP1 DUP3 SWAP1 DUP5 SWAP1 GAS CALL DUP1 ISZERO PUSH2 0xD89 JUMPI PUSH2 0xE18 JUMPI JUMPDEST POP PUSH2 0xCB4 JUMP JUMPDEST PUSH2 0xE21 SWAP1 PUSH2 0x19EB JUMP JUMPDEST DUP8 PUSH2 0xE12 JUMP JUMPDEST PUSH1 0x40 MLOAD PUSH3 0x461BCD PUSH1 0xE5 SHL DUP2 MSTORE PUSH1 0x20 PUSH1 0x4 DUP3 ADD MSTORE PUSH1 0x19 PUSH1 0x24 DUP3 ADD MSTORE PUSH32 0x496E73756666696369656E74206E617469766520746F6B656E00000000000000 PUSH1 0x44 DUP3 ADD MSTORE PUSH1 0x64 SWAP1 REVERT JUMPDEST SWAP1 PUSH1 0x1 PUSH1 0x1 PUSH1 0xA0 SHL SUB PUSH2 0xE8D PUSH2 0xC23 DUP5 PUSH1 0xA4 CALLDATALOAD PUSH1 0x4 DUP2 ADD CALLDATALOAD SWAP1 PUSH1 0x24 ADD PUSH2 0x1B1C JUMP JUMPDEST AND PUSH2 0xF3A JUMPI PUSH2 0xEB6 SWAP1 PUSH1 0x20 PUSH2 0xEAE DUP5 PUSH1 0xA4 CALLDATALOAD PUSH1 0x4 ADD CALLDATALOAD PUSH1 0x24 PUSH1 0xA4 CALLDATALOAD ADD PUSH2 0x1B1C JUMP JUMPDEST ADD CALLDATALOAD SWAP1 PUSH2 0x1B40 JUMP JUMPDEST SWAP1 JUMPDEST DUP6 PUSH1 0x0 MSTORE PUSH1 0x6 PUSH1 0x20 MSTORE PUSH1 0x40 PUSH1 0x0 KECCAK256 SWAP1 PUSH2 0xEDD DUP2 PUSH1 0xA4 CALLDATALOAD PUSH1 0x4 ADD CALLDATALOAD PUSH1 0x24 PUSH1 0xA4 CALLDATALOAD ADD PUSH2 0x1B1C JUMP JUMPDEST SWAP2 DUP1 SLOAD PUSH1 0x1 PUSH1 0x40 SHL DUP2 LT ISZERO PUSH2 0x23D JUMPI PUSH2 0xEFB SWAP2 PUSH1 0x1 DUP3 ADD DUP2 SSTORE PUSH2 0x18F1 JUMP JUMPDEST PUSH2 0xD64 JUMPI PUSH2 0xF35 SWAP3 PUSH1 0x1 SWAP1 PUSH1 0x20 SWAP1 PUSH1 0x1 PUSH1 0x1 PUSH1 0xA0 SHL SUB PUSH2 0xF1A DUP3 PUSH2 0x1B2C JUMP JUMPDEST DUP6 SLOAD PUSH1 0x1 PUSH1 0x1 PUSH1 0xA0 SHL SUB NOT AND SWAP2 AND OR DUP5 SSTORE ADD CALLDATALOAD SWAP2 ADD SSTORE PUSH2 0x1B0D JUMP JUMPDEST PUSH2 0x7DD JUMP JUMPDEST SWAP1 PUSH2 0xFBA PUSH1 0x1 PUSH1 0x1 PUSH1 0xA0 SHL SUB PUSH2 0xF5E PUSH2 0xC23 DUP5 PUSH1 0xA4 CALLDATALOAD PUSH1 0x4 DUP2 ADD CALLDATALOAD SWAP1 PUSH1 0x24 ADD PUSH2 0x1B1C JUMP JUMPDEST AND PUSH1 0x20 SWAP1 PUSH2 0xFB5 DUP3 PUSH2 0xF7C DUP7 PUSH1 0xA4 CALLDATALOAD PUSH1 0x4 ADD CALLDATALOAD PUSH1 0x24 PUSH1 0xA4 CALLDATALOAD ADD PUSH2 0x1B1C JUMP JUMPDEST PUSH1 0x40 MLOAD PUSH4 0x23B872DD PUSH1 0xE0 SHL SWAP6 DUP2 ADD SWAP6 SWAP1 SWAP6 MSTORE CALLER PUSH1 0x24 DUP7 ADD MSTORE ADDRESS PUSH1 0x44 DUP7 ADD MSTORE ADD CALLDATALOAD PUSH1 0x64 DUP5 ADD MSTORE DUP3 PUSH1 0x84 DUP2 ADD JUMPDEST SUB PUSH1 0x1F NOT DUP2 ADD DUP5 MSTORE DUP4 PUSH2 0x19FE JUMP JUMPDEST PUSH2 0x1BC6 JUMP JUMPDEST PUSH2 0xEB8 JUMP JUMPDEST PUSH1 0x40 MLOAD PUSH3 0x461BCD PUSH1 0xE5 SHL DUP2 MSTORE PUSH1 0x20 PUSH1 0x4 DUP3 ADD MSTORE PUSH1 0x11 PUSH1 0x24 DUP3 ADD MSTORE PUSH17 0x125B9D985B1A59081C9958DA5C1A595B9D PUSH1 0x7A SHL PUSH1 0x44 DUP3 ADD MSTORE PUSH1 0x64 SWAP1 REVERT JUMPDEST SWAP1 POP CALLER EQ ISZERO DUP6 PUSH2 0x7C2 JUMP JUMPDEST SWAP3 POP PUSH1 0x4 CALLDATALOAD PUSH2 0x1013 JUMPI CALLER SWAP3 PUSH2 0x7C9 JUMP JUMPDEST PUSH1 0x0 SWAP3 PUSH2 0x7C9 JUMP JUMPDEST PUSH1 0x40 MLOAD PUSH3 0x461BCD PUSH1 0xE5 SHL DUP2 MSTORE PUSH1 0x20 PUSH1 0x4 DUP3 ADD MSTORE PUSH1 0x14 PUSH1 0x24 DUP3 ADD MSTORE PUSH20 0x10DBDB9D195B9D0810D251081C995C5D5A5C9959 PUSH1 0x62 SHL PUSH1 0x44 DUP3 ADD MSTORE PUSH1 0x64 SWAP1 REVERT JUMPDEST PUSH1 0x40 MLOAD PUSH3 0x461BCD PUSH1 0xE5 SHL DUP2 MSTORE PUSH1 0x20 PUSH1 0x4 DUP3 ADD MSTORE PUSH1 0x18 PUSH1 0x24 DUP3 ADD MSTORE PUSH32 0x556E6C6F636B206D75737420626520696E206675747572650000000000000000 PUSH1 0x44 DUP3 ADD MSTORE PUSH1 0x64 SWAP1 REVERT JUMPDEST CALLVALUE PUSH2 0x253 JUMPI PUSH1 0x20 DUP1 PUSH1 0x3 NOT CALLDATASIZE ADD SLT PUSH2 0x253 JUMPI PUSH1 0x4 CALLDATALOAD PUSH2 0x10B9 PUSH2 0x1C22 JUMP JUMPDEST DUP1 PUSH1 0x0 MSTORE PUSH1 0x5 DUP3 MSTORE PUSH1 0x40 PUSH1 0x0 KECCAK256 PUSH2 0x10D2 DUP2 SLOAD ISZERO ISZERO PUSH2 0x1C45 JUMP JUMPDEST PUSH1 0x2 SWAP3 DUP4 DUP3 ADD DUP1 SLOAD SWAP3 PUSH1 0xFF DUP5 PUSH1 0xA8 SHR AND PUSH1 0x4 DUP2 LT ISZERO PUSH2 0xBC7 JUMPI PUSH2 0x10F5 SWAP1 ISZERO PUSH2 0x1C85 JUMP JUMPDEST PUSH1 0xFF PUSH1 0x6 DUP3 ADD SLOAD AND ISZERO PUSH2 0x1301 JUMPI PUSH1 0x5 DUP2 ADD SLOAD TIMESTAMP LT ISZERO PUSH2 0x12B0 JUMPI PUSH2 0x111A PUSH2 0x111F SWAP2 PUSH2 0x1CC2 JUMP JUMPDEST PUSH2 0x1E48 JUMP JUMPDEST SWAP4 PUSH1 0x1 PUSH1 0x1 PUSH1 0xA0 SHL SUB DUP1 DUP7 AND SWAP5 SWAP1 SWAP3 SWAP1 PUSH2 0x113A CALLER DUP8 EQ PUSH2 0x1D74 JUMP JUMPDEST PUSH1 0xFF PUSH1 0xA8 SHL NOT AND PUSH1 0x3 PUSH1 0xA8 SHL OR SWAP1 SSTORE PUSH1 0x0 DUP2 DUP2 MSTORE PUSH1 0x6 DUP5 MSTORE PUSH1 0x40 DUP2 KECCAK256 SWAP1 SWAP5 SWAP1 SWAP2 DUP6 JUMPDEST DUP4 SLOAD DUP8 LT ISZERO PUSH2 0x1275 JUMPI PUSH2 0x116F DUP8 DUP6 PUSH2 0x18F1 JUMP JUMPDEST POP SWAP1 PUSH1 0x1 DUP1 SWAP3 ADD SLOAD DUP11 SLOAD SWAP1 DUP2 DUP2 MUL SWAP2 DUP2 DUP4 DIV EQ SWAP1 ISZERO OR ISZERO PUSH2 0x125F JUMPI PUSH2 0x2710 SWAP1 DIV SWAP2 PUSH2 0x119A DUP10 DUP8 PUSH2 0x18F1 JUMP JUMPDEST POP ADD DUP1 SLOAD SWAP1 DUP4 DUP3 SUB SWAP2 DUP3 GT PUSH2 0x125F JUMPI SSTORE DUP6 PUSH2 0x11B5 DUP10 DUP8 PUSH2 0x18F1 JUMP JUMPDEST POP SLOAD AND PUSH2 0x1235 JUMPI PUSH1 0x0 DUP1 DUP1 DUP1 DUP6 DUP11 PUSH1 0x4 SLOAD AND GAS CALL PUSH2 0x11D1 PUSH2 0x1E95 JUMP JUMPDEST POP ISZERO PUSH2 0x11F0 JUMPI PUSH2 0x11EA SWAP2 PUSH2 0x11E4 SWAP2 PUSH2 0x1B40 JUMP JUMPDEST SWAP7 PUSH2 0x1B0D JUMP JUMPDEST SWAP6 PUSH2 0x115C JUMP JUMPDEST PUSH1 0x40 MLOAD PUSH3 0x461BCD PUSH1 0xE5 SHL DUP2 MSTORE PUSH1 0x4 DUP2 ADD DUP9 SWAP1 MSTORE PUSH1 0x17 PUSH1 0x24 DUP3 ADD MSTORE PUSH32 0x50656E616C7479207472616E73666572206661696C6564000000000000000000 PUSH1 0x44 DUP3 ADD MSTORE PUSH1 0x64 SWAP1 REVERT JUMPDEST DUP2 PUSH2 0x11E4 SWAP2 PUSH2 0x125A PUSH2 0x11EA SWAP5 DUP10 PUSH2 0x124C DUP14 DUP12 PUSH2 0x18F1 JUMP JUMPDEST POP SLOAD AND DUP11 PUSH1 0x4 SLOAD AND SWAP1 PUSH2 0x2154 JUMP JUMPDEST PUSH2 0x1B40 JUMP JUMPDEST PUSH4 0x4E487B71 PUSH1 0xE0 SHL PUSH1 0x0 MSTORE PUSH1 0x11 PUSH1 0x4 MSTORE PUSH1 0x24 PUSH1 0x0 REVERT JUMPDEST DUP6 PUSH32 0xEE09D8FC4A2A58E470B4416A10AB4FFF966A3F946BCDA7D3D37056B221B9779 SWAP2 PUSH2 0x12A2 DUP11 DUP6 PUSH2 0x1EC5 JUMP JUMPDEST PUSH1 0x40 MLOAD SWAP1 DUP2 MSTORE LOG3 PUSH1 0x1 PUSH1 0x0 SSTORE STOP JUMPDEST PUSH1 0x40 MLOAD PUSH3 0x461BCD PUSH1 0xE5 SHL DUP2 MSTORE PUSH1 0x4 DUP2 ADD DUP5 SWAP1 MSTORE PUSH1 0x23 PUSH1 0x24 DUP3 ADD MSTORE PUSH32 0x416C726561647920756E6C6F636B61626C652C20757365206F70656E43617073 PUSH1 0x44 DUP3 ADD MSTORE PUSH3 0x756C65 PUSH1 0xE8 SHL PUSH1 0x64 DUP3 ADD MSTORE PUSH1 0x84 SWAP1 REVERT JUMPDEST PUSH1 0x40 MLOAD PUSH3 0x461BCD PUSH1 0xE5 SHL DUP2 MSTORE PUSH1 0x4 DUP2 ADD DUP5 SWAP1 MSTORE PUSH1 0x18 PUSH1 0x24 DUP3 ADD MSTORE PUSH32 0x4561726C7920756E6C6F636B206E6F7420616C6C6F7765640000000000000000 PUSH1 0x44 DUP3 ADD MSTORE PUSH1 0x64 SWAP1 REVERT JUMPDEST CALLVALUE PUSH2 0x253 JUMPI PUSH1 0x0 CALLDATASIZE PUSH1 0x3 NOT ADD SLT PUSH2 0x253 JUMPI PUSH1 0x4 SLOAD PUSH1 0x40 MLOAD PUSH1 0x1 PUSH1 0x1 PUSH1 0xA0 SHL SUB SWAP1 SWAP2 AND DUP2 MSTORE PUSH1 0x20 SWAP1 RETURN JUMPDEST CALLVALUE PUSH2 0x253 JUMPI PUSH1 0x20 CALLDATASIZE PUSH1 0x3 NOT ADD SLT PUSH2 0x253 JUMPI PUSH1 0x4 CALLDATALOAD PUSH2 0x138B PUSH2 0x1C22 JUMP JUMPDEST DUP1 PUSH1 0x0 MSTORE PUSH1 0x5 PUSH1 0x20 MSTORE PUSH1 0x40 PUSH1 0x0 KECCAK256 SWAP1 PUSH2 0x13A6 DUP3 SLOAD ISZERO ISZERO PUSH2 0x1C45 JUMP JUMPDEST PUSH1 0x2 DUP3 ADD SWAP2 DUP3 SLOAD SWAP3 PUSH1 0xFF DUP5 PUSH1 0xA8 SHR AND PUSH1 0x4 DUP2 LT ISZERO PUSH2 0xBC7 JUMPI PUSH2 0x13C8 SWAP1 ISZERO PUSH2 0x1C85 JUMP JUMPDEST PUSH1 0x5 DUP3 ADD SLOAD TIMESTAMP LT PUSH2 0x143C JUMPI PUSH2 0x13E2 PUSH2 0x111A PUSH2 0x1410 SWAP4 PUSH2 0x1CC2 JUMP JUMPDEST PUSH1 0x1 PUSH1 0x1 PUSH1 0xA0 SHL SUB DUP2 AND SWAP5 SWAP1 SWAP2 SWAP1 PUSH2 0x13FB CALLER DUP8 EQ PUSH2 0x1D74 JUMP JUMPDEST PUSH1 0xFF PUSH1 0xA8 SHL NOT AND PUSH1 0x1 PUSH1 0xA9 SHL OR SWAP1 SSTORE DUP3 PUSH2 0x1EC5 JUMP JUMPDEST PUSH32 0x7D3112E72B789AD7C63705EC623A9760C64DD2B02125A7A8D5E96D252C4009F6 PUSH1 0x0 DUP1 LOG3 PUSH1 0x1 PUSH1 0x0 SSTORE STOP JUMPDEST PUSH1 0x40 MLOAD PUSH3 0x461BCD PUSH1 0xE5 SHL DUP2 MSTORE PUSH1 0x20 PUSH1 0x4 DUP3 ADD MSTORE PUSH1 0x12 PUSH1 0x24 DUP3 ADD MSTORE PUSH18 0x4E6F742079657420756E6C6F636B61626C65 PUSH1 0x70 SHL PUSH1 0x44 DUP3 ADD MSTORE PUSH1 0x64 SWAP1 REVERT JUMPDEST CALLVALUE PUSH2 0x253 JUMPI PUSH1 0x20 CALLDATASIZE PUSH1 0x3 NOT ADD SLT PUSH2 0x253 JUMPI PUSH1 0x4 CALLDATALOAD PUSH1 0x0 MSTORE PUSH1 0x5 PUSH1 0x20 MSTORE PUSH1 0x40 PUSH1 0x0 KECCAK256 DUP1 SLOAD PUSH1 0x1 DUP1 PUSH1 0xA0 SHL SUB SWAP2 DUP3 PUSH1 0x1 DUP3 ADD SLOAD AND SWAP3 PUSH1 0x2 DUP3 ADD SLOAD SWAP2 PUSH2 0x14BB PUSH1 0x3 DUP3 ADD PUSH2 0x1A1F JUMP JUMPDEST SWAP3 PUSH1 0x4 DUP3 ADD SLOAD SWAP4 PUSH1 0x5 DUP4 ADD SLOAD PUSH2 0x152F PUSH1 0xFF PUSH1 0x6 DUP7 ADD SLOAD AND SWAP3 PUSH2 0x151E PUSH1 0x7 DUP8 ADD SLOAD SWAP6 PUSH1 0x9 PUSH1 0x8 DUP10 ADD SLOAD SWAP9 ADD SLOAD SWAP9 PUSH1 0x40 MLOAD SWAP13 DUP14 SWAP13 DUP14 MSTORE PUSH1 0x20 DUP14 ADD MSTORE DUP2 AND PUSH1 0x40 DUP13 ADD MSTORE PUSH2 0x150E PUSH1 0x60 DUP13 ADD PUSH1 0xFF DUP4 PUSH1 0xA0 SHR AND PUSH2 0x1948 JUMP JUMPDEST PUSH1 0xFF PUSH1 0x80 DUP13 ADD SWAP2 PUSH1 0xA8 SHR AND PUSH2 0x18E4 JUMP JUMPDEST PUSH2 0x180 DUP1 PUSH1 0xA0 DUP12 ADD MSTORE DUP10 ADD SWAP1 PUSH2 0x1955 JUMP JUMPDEST SWAP6 PUSH1 0xC0 DUP9 ADD MSTORE PUSH1 0xE0 DUP8 ADD MSTORE ISZERO ISZERO PUSH2 0x100 DUP7 ADD MSTORE PUSH2 0x120 DUP6 ADD MSTORE PUSH2 0x140 DUP5 ADD MSTORE PUSH2 0x160 DUP4 ADD MSTORE SUB SWAP1 RETURN JUMPDEST CALLVALUE PUSH2 0x253 JUMPI PUSH1 0x20 DUP1 PUSH1 0x3 NOT CALLDATASIZE ADD SLT PUSH2 0x253 JUMPI PUSH1 0x40 MLOAD SWAP1 PUSH2 0x1577 DUP3 PUSH2 0x19CF JUMP JUMPDEST PUSH1 0x0 DUP3 MSTORE PUSH1 0x0 DUP2 DUP4 ADD MSTORE PUSH1 0x0 PUSH1 0x40 DUP4 ADD MSTORE PUSH1 0x0 PUSH1 0x60 DUP4 ADD MSTORE PUSH1 0x0 PUSH1 0x80 DUP4 ADD MSTORE PUSH1 0x60 PUSH1 0xA0 DUP4 ADD MSTORE PUSH1 0x0 PUSH1 0xC0 DUP4 ADD MSTORE PUSH1 0x0 PUSH1 0xE0 DUP4 ADD MSTORE PUSH2 0x100 PUSH1 0x0 DUP2 DUP5 ADD MSTORE PUSH2 0x120 PUSH1 0x0 DUP2 DUP6 ADD MSTORE PUSH2 0x140 SWAP4 PUSH1 0x0 DUP6 DUP3 ADD MSTORE PUSH1 0x0 PUSH2 0x160 DUP1 SWAP3 ADD MSTORE PUSH1 0x4 CALLDATALOAD PUSH1 0x0 MSTORE PUSH1 0x5 DUP5 MSTORE PUSH2 0x15E7 PUSH1 0x40 PUSH1 0x0 KECCAK256 PUSH2 0x1CC2 JUMP JUMPDEST PUSH1 0x40 MLOAD SWAP6 DUP6 DUP8 SWAP7 DUP8 MSTORE DUP3 MLOAD DUP2 DUP9 ADD MSTORE PUSH1 0x1 DUP1 PUSH1 0xA0 SHL SUB DUP1 SWAP2 DUP5 ADD MLOAD AND PUSH1 0x40 DUP9 ADD MSTORE PUSH1 0x40 DUP4 ADD MLOAD AND PUSH1 0x60 DUP8 ADD MSTORE PUSH2 0x1625 PUSH1 0x60 DUP4 ADD MLOAD PUSH1 0x80 DUP9 ADD SWAP1 PUSH2 0x1948 JUMP JUMPDEST PUSH2 0x1637 PUSH1 0x80 DUP4 ADD MLOAD PUSH1 0xA0 DUP9 ADD SWAP1 PUSH2 0x18E4 JUMP JUMPDEST PUSH1 0xA0 DUP3 ADD MLOAD SWAP4 PUSH2 0x1655 PUSH2 0x180 SWAP6 DUP7 PUSH1 0xC0 DUP11 ADD MSTORE PUSH2 0x1A0 DUP10 ADD SWAP1 PUSH2 0x1955 JUMP JUMPDEST SWAP6 PUSH1 0xC0 DUP5 ADD MLOAD PUSH1 0xE0 DUP10 ADD MSTORE PUSH1 0xE0 DUP5 ADD MLOAD DUP2 DUP10 ADD MSTORE DUP4 ADD MLOAD ISZERO ISZERO DUP2 DUP9 ADD MSTORE DUP3 ADD MLOAD DUP2 DUP8 ADD MSTORE DUP2 ADD MLOAD DUP3 DUP7 ADD MSTORE ADD MLOAD SWAP1 DUP4 ADD MSTORE SUB SWAP1 RETURN JUMPDEST CALLVALUE PUSH2 0x253 JUMPI PUSH1 0x20 DUP1 PUSH1 0x3 NOT CALLDATASIZE ADD SLT PUSH2 0x253 JUMPI PUSH1 0x1 PUSH1 0x1 PUSH1 0xA0 SHL SUB PUSH2 0x16AC PUSH2 0x188B JUMP JUMPDEST AND PUSH1 0x0 MSTORE PUSH1 0x8 DUP2 MSTORE PUSH1 0x40 PUSH1 0x0 KECCAK256 SWAP1 PUSH1 0x40 MLOAD SWAP1 DUP2 DUP2 DUP5 SLOAD SWAP2 DUP3 DUP2 MSTORE ADD SWAP4 PUSH1 0x0 MSTORE DUP2 PUSH1 0x0 KECCAK256 SWAP2 PUSH1 0x0 SWAP1 JUMPDEST DUP3 DUP3 LT PUSH2 0x16EB JUMPI PUSH2 0x649 DUP6 PUSH2 0x63D DUP2 DUP10 SUB DUP3 PUSH2 0x19FE JUMP JUMPDEST DUP4 SLOAD DUP7 MSTORE SWAP5 DUP6 ADD SWAP5 PUSH1 0x1 SWAP4 DUP5 ADD SWAP4 SWAP1 SWAP2 ADD SWAP1 PUSH2 0x16D4 JUMP JUMPDEST CALLVALUE PUSH2 0x253 JUMPI PUSH2 0x1710 CALLDATASIZE PUSH2 0x1843 JUMP JUMPDEST SWAP1 PUSH1 0x0 MSTORE PUSH1 0x6 PUSH1 0x20 MSTORE PUSH1 0x40 PUSH1 0x0 KECCAK256 SWAP1 DUP2 SLOAD DUP2 LT ISZERO PUSH2 0x253 JUMPI PUSH2 0x1731 SWAP2 PUSH2 0x18F1 JUMP JUMPDEST POP DUP1 SLOAD PUSH1 0x1 SWAP1 SWAP2 ADD SLOAD PUSH1 0x40 DUP1 MLOAD PUSH1 0x1 PUSH1 0x1 PUSH1 0xA0 SHL SUB SWAP1 SWAP4 AND DUP4 MSTORE PUSH1 0x20 DUP4 ADD SWAP2 SWAP1 SWAP2 MSTORE SWAP1 RETURN JUMPDEST CALLVALUE PUSH2 0x253 JUMPI PUSH1 0x20 CALLDATASIZE PUSH1 0x3 NOT ADD SLT PUSH2 0x253 JUMPI PUSH1 0x20 PUSH2 0x1774 PUSH1 0x4 CALLDATALOAD PUSH2 0x1DC8 JUMP JUMPDEST PUSH2 0x1781 PUSH1 0x40 MLOAD DUP1 SWAP3 PUSH2 0x18E4 JUMP JUMPDEST RETURN JUMPDEST CALLVALUE PUSH2 0x253 JUMPI PUSH1 0x80 CALLDATASIZE PUSH1 0x3 NOT ADD SLT PUSH2 0x253 JUMPI PUSH2 0x179C PUSH2 0x188B JUMP JUMPDEST POP PUSH2 0x17A5 PUSH2 0x18A1 JUMP JUMPDEST POP PUSH1 0x64 CALLDATALOAD PUSH1 0x1 PUSH1 0x1 PUSH1 0x40 SHL SUB DUP2 GT PUSH2 0x253 JUMPI PUSH2 0x17C5 SWAP1 CALLDATASIZE SWAP1 PUSH1 0x4 ADD PUSH2 0x18B7 JUMP JUMPDEST POP POP PUSH1 0x40 MLOAD PUSH4 0xA85BD01 PUSH1 0xE1 SHL DUP2 MSTORE PUSH1 0x20 SWAP1 RETURN JUMPDEST CALLVALUE PUSH2 0x253 JUMPI PUSH2 0x17E7 CALLDATASIZE PUSH2 0x1843 JUMP JUMPDEST SWAP1 PUSH1 0x0 MSTORE PUSH1 0x7 PUSH1 0x20 MSTORE PUSH1 0x40 PUSH1 0x0 KECCAK256 DUP1 SLOAD DUP3 LT ISZERO PUSH2 0x253 JUMPI PUSH1 0x80 SWAP2 PUSH2 0x180A SWAP2 PUSH2 0x1859 JUMP JUMPDEST POP PUSH1 0x1 DUP1 PUSH1 0xA0 SHL SUB DUP2 SLOAD AND SWAP1 PUSH1 0x1 DUP2 ADD SLOAD SWAP1 PUSH1 0x3 PUSH1 0xFF PUSH1 0x2 DUP4 ADD SLOAD AND SWAP2 ADD SLOAD SWAP2 PUSH1 0x40 MLOAD SWAP4 DUP5 MSTORE PUSH1 0x20 DUP5 ADD MSTORE ISZERO ISZERO PUSH1 0x40 DUP4 ADD MSTORE PUSH1 0x60 DUP3 ADD MSTORE RETURN JUMPDEST PUSH1 0x40 SWAP1 PUSH1 0x3 NOT ADD SLT PUSH2 0x253 JUMPI PUSH1 0x4 CALLDATALOAD SWAP1 PUSH1 0x24 CALLDATALOAD SWAP1 JUMP JUMPDEST DUP1 SLOAD DUP3 LT ISZERO PUSH2 0x1875 JUMPI PUSH1 0x0 MSTORE PUSH1 0x20 PUSH1 0x0 KECCAK256 SWAP1 PUSH1 0x2 SHL ADD SWAP1 PUSH1 0x0 SWAP1 JUMP JUMPDEST PUSH4 0x4E487B71 PUSH1 0xE0 SHL PUSH1 0x0 MSTORE PUSH1 0x32 PUSH1 0x4 MSTORE PUSH1 0x24 PUSH1 0x0 REVERT JUMPDEST PUSH1 0x4 CALLDATALOAD SWAP1 PUSH1 0x1 PUSH1 0x1 PUSH1 0xA0 SHL SUB DUP3 AND DUP3 SUB PUSH2 0x253 JUMPI JUMP JUMPDEST PUSH1 0x24 CALLDATALOAD SWAP1 PUSH1 0x1 PUSH1 0x1 PUSH1 0xA0 SHL SUB DUP3 AND DUP3 SUB PUSH2 0x253 JUMPI JUMP JUMPDEST SWAP2 DUP2 PUSH1 0x1F DUP5 ADD SLT ISZERO PUSH2 0x253 JUMPI DUP3 CALLDATALOAD SWAP2 PUSH1 0x1 PUSH1 0x1 PUSH1 0x40 SHL SUB DUP4 GT PUSH2 0x253 JUMPI PUSH1 0x20 DUP4 DUP2 DUP7 ADD SWAP6 ADD ADD GT PUSH2 0x253 JUMPI JUMP JUMPDEST SWAP1 PUSH1 0x4 DUP3 LT ISZERO PUSH2 0xBC7 JUMPI MSTORE JUMP JUMPDEST DUP1 SLOAD DUP3 LT ISZERO PUSH2 0x1875 JUMPI PUSH1 0x0 MSTORE PUSH1 0x20 PUSH1 0x0 KECCAK256 SWAP1 PUSH1 0x1 SHL ADD SWAP1 PUSH1 0x0 SWAP1 JUMP JUMPDEST PUSH1 0x20 SWAP1 DUP2 PUSH1 0x40 DUP2 DUP4 ADD SWAP3 DUP3 DUP2 MSTORE DUP6 MLOAD DUP1 SWAP5 MSTORE ADD SWAP4 ADD SWAP2 PUSH1 0x0 JUMPDEST DUP3 DUP2 LT PUSH2 0x1934 JUMPI POP POP POP POP SWAP1 JUMP JUMPDEST DUP4 MLOAD DUP6 MSTORE SWAP4 DUP2 ADD SWAP4 SWAP3 DUP2 ADD SWAP3 PUSH1 0x1 ADD PUSH2 0x1926 JUMP JUMPDEST SWAP1 PUSH1 0x3 DUP3 LT ISZERO PUSH2 0xBC7 JUMPI MSTORE JUMP JUMPDEST SWAP2 SWAP1 DUP3 MLOAD SWAP3 DUP4 DUP3 MSTORE PUSH1 0x0 JUMPDEST DUP5 DUP2 LT PUSH2 0x1981 JUMPI POP POP DUP3 PUSH1 0x0 PUSH1 0x20 DUP1 SWAP5 SWAP6 DUP5 ADD ADD MSTORE PUSH1 0x1F DUP1 NOT SWAP2 ADD AND ADD ADD SWAP1 JUMP JUMPDEST PUSH1 0x20 DUP2 DUP4 ADD DUP2 ADD MLOAD DUP5 DUP4 ADD DUP3 ADD MSTORE ADD PUSH2 0x1960 JUMP JUMPDEST SWAP1 PUSH1 0x1 DUP3 DUP2 SHR SWAP3 AND DUP1 ISZERO PUSH2 0x19C5 JUMPI JUMPDEST PUSH1 0x20 DUP4 LT EQ PUSH2 0x19AF JUMPI JUMP JUMPDEST PUSH4 0x4E487B71 PUSH1 0xE0 SHL PUSH1 0x0 MSTORE PUSH1 0x22 PUSH1 0x4 MSTORE PUSH1 0x24 PUSH1 0x0 REVERT JUMPDEST SWAP2 PUSH1 0x7F AND SWAP2 PUSH2 0x19A4 JUMP JUMPDEST PUSH2 0x180 DUP2 ADD SWAP1 DUP2 LT PUSH1 0x1 PUSH1 0x1 PUSH1 0x40 SHL SUB DUP3 GT OR PUSH2 0x23D JUMPI PUSH1 0x40 MSTORE JUMP JUMPDEST PUSH1 0x1 PUSH1 0x1 PUSH1 0x40 SHL SUB DUP2 GT PUSH2 0x23D JUMPI PUSH1 0x40 MSTORE JUMP JUMPDEST SWAP1 PUSH1 0x1F DUP1 NOT SWAP2 ADD AND DUP2 ADD SWAP1 DUP2 LT PUSH1 0x1 PUSH1 0x1 PUSH1 0x40 SHL SUB DUP3 GT OR PUSH2 0x23D JUMPI PUSH1 0x40 MSTORE JUMP JUMPDEST SWAP1 PUSH1 0x40 MLOAD SWAP2 DUP3 PUSH1 0x0 DUP3 SLOAD SWAP3 PUSH2 0x1A33 DUP5 PUSH2 0x1995 JUMP JUMPDEST SWAP1 DUP2 DUP5 MSTORE PUSH1 0x1 SWAP5 DUP6 DUP2 AND SWAP1 DUP2 PUSH1 0x0 EQ PUSH2 0x1AA2 JUMPI POP PUSH1 0x1 EQ PUSH2 0x1A5F JUMPI JUMPDEST POP POP PUSH2 0x1A5D SWAP3 POP SUB DUP4 PUSH2 0x19FE JUMP JUMPDEST JUMP JUMPDEST SWAP1 SWAP4 SWAP2 POP PUSH1 0x0 MSTORE PUSH1 0x20 SWAP1 DUP2 PUSH1 0x0 KECCAK256 SWAP4 PUSH1 0x0 SWAP2 JUMPDEST DUP2 DUP4 LT PUSH2 0x1A8A JUMPI POP POP PUSH2 0x1A5D SWAP4 POP DUP3 ADD ADD CODESIZE DUP1 PUSH2 0x1A4F JUMP JUMPDEST DUP6 SLOAD DUP9 DUP5 ADD DUP6 ADD MSTORE SWAP5 DUP6 ADD SWAP5 DUP8 SWAP5 POP SWAP2 DUP4 ADD SWAP2 PUSH2 0x1A72 JUMP JUMPDEST SWAP2 POP POP PUSH2 0x1A5D SWAP5 POP PUSH1 0x20 SWAP3 POP PUSH1 0xFF NOT AND DUP3 DUP5 ADD MSTORE ISZERO ISZERO PUSH1 0x5 SHL DUP3 ADD ADD CODESIZE DUP1 PUSH2 0x1A4F JUMP JUMPDEST DUP1 SLOAD DUP3 LT ISZERO PUSH2 0x1875 JUMPI PUSH1 0x0 MSTORE PUSH1 0x20 PUSH1 0x0 KECCAK256 ADD SWAP1 PUSH1 0x0 SWAP1 JUMP JUMPDEST SWAP2 DUP2 PUSH1 0x1F DUP5 ADD SLT ISZERO PUSH2 0x253 JUMPI DUP3 CALLDATALOAD SWAP2 PUSH1 0x1 PUSH1 0x1 PUSH1 0x40 SHL SUB DUP4 GT PUSH2 0x253 JUMPI PUSH1 0x20 DUP1 DUP6 ADD SWAP5 DUP5 PUSH1 0x5 SHL ADD ADD GT PUSH2 0x253 JUMPI JUMP JUMPDEST PUSH1 0x0 NOT DUP2 EQ PUSH2 0x125F JUMPI PUSH1 0x1 ADD SWAP1 JUMP JUMPDEST SWAP2 SWAP1 DUP2 LT ISZERO PUSH2 0x1875 JUMPI PUSH1 0x6 SHL ADD SWAP1 JUMP JUMPDEST CALLDATALOAD PUSH1 0x1 PUSH1 0x1 PUSH1 0xA0 SHL SUB DUP2 AND DUP2 SUB PUSH2 0x253 JUMPI SWAP1 JUMP JUMPDEST SWAP2 SWAP1 DUP3 ADD DUP1 SWAP3 GT PUSH2 0x125F JUMPI JUMP JUMPDEST SWAP2 SWAP1 DUP2 LT ISZERO PUSH2 0x1875 JUMPI PUSH1 0x7 SHL ADD SWAP1 JUMP JUMPDEST CALLDATALOAD DUP1 ISZERO ISZERO DUP2 SUB PUSH2 0x253 JUMPI SWAP1 JUMP JUMPDEST PUSH1 0x3 DUP3 LT ISZERO PUSH2 0xBC7 JUMPI MSTORE JUMP JUMPDEST PUSH1 0x1 PUSH1 0x1 PUSH1 0x40 SHL SUB DUP2 GT PUSH2 0x23D JUMPI PUSH1 0x1F ADD PUSH1 0x1F NOT AND PUSH1 0x20 ADD SWAP1 JUMP JUMPDEST DUP1 SLOAD PUSH1 0x1 PUSH1 0x40 SHL DUP2 LT ISZERO PUSH2 0x23D JUMPI PUSH2 0x1BAE SWAP2 PUSH1 0x1 DUP3 ADD DUP2 SSTORE PUSH2 0x1AC5 JUMP JUMPDEST DUP2 SWAP3 SWAP2 SLOAD SWAP1 PUSH1 0x3 SHL SWAP2 DUP3 SHL SWAP2 PUSH1 0x0 NOT SWAP1 SHL NOT AND OR SWAP1 SSTORE JUMP JUMPDEST SWAP1 PUSH1 0x0 PUSH1 0x20 SWAP2 DUP3 DUP2 MLOAD SWAP2 ADD DUP3 DUP6 GAS CALL ISZERO PUSH2 0xD89 JUMPI PUSH1 0x0 MLOAD RETURNDATASIZE PUSH2 0x1C19 JUMPI POP PUSH1 0x1 PUSH1 0x1 PUSH1 0xA0 SHL SUB DUP2 AND EXTCODESIZE ISZERO JUMPDEST PUSH2 0x1BF7 JUMPI POP JUMP JUMPDEST PUSH1 0x40 MLOAD PUSH4 0x5274AFE7 PUSH1 0xE0 SHL DUP2 MSTORE PUSH1 0x1 PUSH1 0x1 PUSH1 0xA0 SHL SUB SWAP1 SWAP2 AND PUSH1 0x4 DUP3 ADD MSTORE PUSH1 0x24 SWAP1 REVERT JUMPDEST PUSH1 0x1 EQ ISZERO PUSH2 0x1BF0 JUMP JUMPDEST PUSH1 0x2 PUSH1 0x0 SLOAD EQ PUSH2 0x1C33 JUMPI PUSH1 0x2 PUSH1 0x0 SSTORE JUMP JUMPDEST PUSH1 0x40 MLOAD PUSH4 0x3EE5AEB5 PUSH1 0xE0 SHL DUP2 MSTORE PUSH1 0x4 SWAP1 REVERT JUMPDEST ISZERO PUSH2 0x1C4C JUMPI JUMP JUMPDEST PUSH1 0x40 MLOAD PUSH3 0x461BCD PUSH1 0xE5 SHL DUP2 MSTORE PUSH1 0x20 PUSH1 0x4 DUP3 ADD MSTORE PUSH1 0x11 PUSH1 0x24 DUP3 ADD MSTORE PUSH17 0x10D85C1CDD5B19481B9BDD08199BDD5B99 PUSH1 0x7A SHL PUSH1 0x44 DUP3 ADD MSTORE PUSH1 0x64 SWAP1 REVERT JUMPDEST ISZERO PUSH2 0x1C8C JUMPI JUMP JUMPDEST PUSH1 0x40 MLOAD PUSH3 0x461BCD PUSH1 0xE5 SHL DUP2 MSTORE PUSH1 0x20 PUSH1 0x4 DUP3 ADD MSTORE PUSH1 0xE PUSH1 0x24 DUP3 ADD MSTORE PUSH14 0x105B1C9958591E481BDC195B9959 PUSH1 0x92 SHL PUSH1 0x44 DUP3 ADD MSTORE PUSH1 0x64 SWAP1 REVERT JUMPDEST SWAP1 PUSH1 0x40 MLOAD PUSH2 0x1CCF DUP2 PUSH2 0x19CF JUMP JUMPDEST DUP1 SWAP3 DUP1 SLOAD DUP3 MSTORE PUSH1 0xFF PUSH1 0x1 DUP1 PUSH1 0xA0 SHL SUB DUP1 PUSH1 0x1 DUP5 ADD SLOAD AND PUSH1 0x20 DUP6 ADD MSTORE PUSH1 0x2 DUP4 ADD SLOAD SWAP1 DUP2 AND PUSH1 0x40 DUP6 ADD MSTORE PUSH2 0x1D09 DUP3 DUP3 PUSH1 0xA0 SHR AND PUSH1 0x60 DUP7 ADD PUSH2 0x1B6A JUMP JUMPDEST PUSH1 0xA8 SHR AND PUSH1 0x4 DUP2 LT ISZERO PUSH2 0xBC7 JUMPI PUSH2 0x160 SWAP2 PUSH1 0x9 SWAP2 PUSH1 0x80 DUP6 ADD MSTORE PUSH2 0x1D2E PUSH1 0x3 DUP3 ADD PUSH2 0x1A1F JUMP JUMPDEST PUSH1 0xA0 DUP6 ADD MSTORE PUSH1 0x4 DUP2 ADD SLOAD PUSH1 0xC0 DUP6 ADD MSTORE PUSH1 0x5 DUP2 ADD SLOAD PUSH1 0xE0 DUP6 ADD MSTORE PUSH1 0xFF PUSH1 0x6 DUP3 ADD SLOAD AND ISZERO ISZERO PUSH2 0x100 DUP6 ADD MSTORE PUSH1 0x7 DUP2 ADD SLOAD PUSH2 0x120 DUP6 ADD MSTORE PUSH1 0x8 DUP2 ADD SLOAD PUSH2 0x140 DUP6 ADD MSTORE ADD SLOAD SWAP2 ADD MSTORE JUMP JUMPDEST ISZERO PUSH2 0x1D7B JUMPI JUMP JUMPDEST PUSH1 0x40 MLOAD PUSH3 0x461BCD PUSH1 0xE5 SHL DUP2 MSTORE PUSH1 0x20 PUSH1 0x4 DUP3 ADD MSTORE PUSH1 0xE PUSH1 0x24 DUP3 ADD MSTORE PUSH14 0x139BDD08185D5D1A1BDC9A5E9959 PUSH1 0x92 SHL PUSH1 0x44 DUP3 ADD MSTORE PUSH1 0x64 SWAP1 REVERT JUMPDEST PUSH1 0x1 PUSH1 0x1 PUSH1 0x40 SHL SUB DUP2 GT PUSH2 0x23D JUMPI PUSH1 0x5 SHL PUSH1 0x20 ADD SWAP1 JUMP JUMPDEST PUSH1 0x0 SWAP1 DUP2 MSTORE PUSH1 0x5 PUSH1 0x20 MSTORE PUSH2 0x1DDE PUSH1 0x40 DUP3 KECCAK256 PUSH2 0x1CC2 JUMP JUMPDEST PUSH1 0x80 DUP2 ADD SWAP1 DUP2 MLOAD PUSH1 0x4 DUP2 LT ISZERO PUSH2 0x1E34 JUMPI ISZERO SWAP1 DUP2 PUSH2 0x1E25 JUMPI JUMPDEST POP PUSH2 0x1E1E JUMPI MLOAD SWAP1 PUSH1 0x4 DUP3 LT ISZERO PUSH2 0x1E0A JUMPI POP SWAP1 JUMP JUMPDEST PUSH4 0x4E487B71 PUSH1 0xE0 SHL DUP2 MSTORE PUSH1 0x21 PUSH1 0x4 MSTORE PUSH1 0x24 SWAP1 REVERT JUMPDEST POP POP PUSH1 0x1 SWAP1 JUMP JUMPDEST PUSH1 0xE0 SWAP2 POP ADD MLOAD TIMESTAMP LT ISZERO CODESIZE PUSH2 0x1DF6 JUMP JUMPDEST PUSH4 0x4E487B71 PUSH1 0xE0 SHL DUP5 MSTORE PUSH1 0x21 PUSH1 0x4 MSTORE PUSH1 0x24 DUP5 REVERT JUMPDEST PUSH1 0x60 DUP2 ADD DUP1 MLOAD PUSH1 0x3 DUP2 LT ISZERO PUSH2 0xBC7 JUMPI PUSH1 0x2 EQ PUSH2 0x1E8F JUMPI MLOAD PUSH1 0x3 DUP2 LT ISZERO PUSH2 0xBC7 JUMPI PUSH1 0x1 EQ PUSH2 0x1E7F JUMPI PUSH1 0x20 ADD MLOAD PUSH1 0x1 PUSH1 0x1 PUSH1 0xA0 SHL SUB AND SWAP1 JUMP JUMPDEST PUSH1 0x40 ADD MLOAD PUSH1 0x1 PUSH1 0x1 PUSH1 0xA0 SHL SUB AND SWAP1 JUMP JUMPDEST POP POP CALLER SWAP1 JUMP JUMPDEST RETURNDATASIZE ISZERO PUSH2 0x1EC0 JUMPI RETURNDATASIZE SWAP1 PUSH2 0x1EA6 DUP3 PUSH2 0x1B76 JUMP JUMPDEST SWAP2 PUSH2 0x1EB4 PUSH1 0x40 MLOAD SWAP4 DUP5 PUSH2 0x19FE JUMP JUMPDEST DUP3 MSTORE RETURNDATASIZE PUSH1 0x0 PUSH1 0x20 DUP5 ADD RETURNDATACOPY JUMP JUMPDEST PUSH1 0x60 SWAP1 JUMP JUMPDEST PUSH1 0x0 DUP2 DUP2 MSTORE PUSH1 0x20 SWAP3 PUSH1 0x6 DUP5 MSTORE PUSH1 0x40 SWAP3 DUP4 DUP4 KECCAK256 SWAP1 DUP4 JUMPDEST DUP3 SLOAD DUP2 LT ISZERO PUSH2 0x1F9E JUMPI PUSH2 0x1EED DUP2 DUP5 PUSH2 0x18F1 JUMP JUMPDEST POP SLOAD PUSH1 0x1 PUSH1 0x1 PUSH1 0xA0 SHL SUB SWAP1 DUP2 AND PUSH2 0x1F6E JUMPI POP DUP5 DUP1 DUP1 DUP1 PUSH1 0x1 PUSH2 0x1F0F DUP7 DUP10 PUSH2 0x18F1 JUMP JUMPDEST POP ADD SLOAD DUP9 GAS CALL PUSH2 0x1F1D PUSH2 0x1E95 JUMP JUMPDEST POP ISZERO PUSH2 0x1F31 JUMPI PUSH2 0x1F2C SWAP1 PUSH2 0x1B0D JUMP JUMPDEST PUSH2 0x1EDA JUMP JUMPDEST DUP6 MLOAD PUSH3 0x461BCD PUSH1 0xE5 SHL DUP2 MSTORE PUSH1 0x4 DUP2 ADD DUP9 SWAP1 MSTORE PUSH1 0x16 PUSH1 0x24 DUP3 ADD MSTORE PUSH22 0x13985D1A5D99481D1C985B9CD9995C8819985A5B1959 PUSH1 0x52 SHL PUSH1 0x44 DUP3 ADD MSTORE PUSH1 0x64 SWAP1 REVERT JUMPDEST SWAP1 PUSH2 0x1F99 PUSH2 0x1F2C SWAP3 PUSH2 0x1F80 DUP4 DUP8 PUSH2 0x18F1 JUMP JUMPDEST POP SLOAD AND DUP7 PUSH1 0x1 PUSH2 0x1F90 DUP6 DUP10 PUSH2 0x18F1 JUMP JUMPDEST POP ADD SLOAD SWAP2 PUSH2 0x2154 JUMP JUMPDEST PUSH2 0x1B0D JUMP JUMPDEST POP SWAP3 SWAP6 SWAP3 SWAP5 SWAP2 SWAP4 SWAP3 PUSH1 0x1 PUSH1 0x1 PUSH1 0xA0 SHL SUB DUP1 DUP7 AND SWAP4 SWAP1 SWAP3 POP PUSH1 0x7 SWAP1 DUP5 DUP9 PUSH32 0xDDDDC48B57DD67F8FA2FF05C78034B578C31EF5CAA05B03D2CA16FEADBBB98F DUP12 DUP1 LOG3 DUP8 DUP10 MSTORE MSTORE DUP4 DUP8 KECCAK256 SWAP3 DUP8 JUMPDEST DUP5 SLOAD DUP2 LT ISZERO PUSH2 0x2125 JUMPI PUSH1 0xFF PUSH1 0x2 PUSH2 0x1FFF DUP4 DUP9 PUSH2 0x1859 JUMP JUMPDEST POP ADD SLOAD AND ISZERO PUSH2 0x20C4 JUMPI DUP4 PUSH2 0x2013 DUP3 DUP8 PUSH2 0x1859 JUMP JUMPDEST POP SLOAD AND DUP10 PUSH1 0x1 PUSH2 0x2023 DUP5 DUP10 PUSH2 0x1859 JUMP JUMPDEST POP ADD SLOAD SWAP2 PUSH1 0x3 PUSH2 0x2033 DUP6 DUP11 PUSH2 0x1859 JUMP JUMPDEST POP ADD SLOAD SWAP1 DUP1 EXTCODESIZE ISZERO PUSH2 0x20C0 JUMPI DUP10 MLOAD PUSH4 0x79212195 PUSH1 0xE1 SHL DUP2 MSTORE ADDRESS PUSH1 0x4 DUP3 ADD MSTORE PUSH1 0x1 PUSH1 0x1 PUSH1 0xA0 SHL SUB DUP13 AND PUSH1 0x24 DUP3 ADD MSTORE PUSH1 0x44 DUP2 ADD SWAP5 SWAP1 SWAP5 MSTORE PUSH1 0x64 DUP5 ADD SWAP2 SWAP1 SWAP2 MSTORE PUSH1 0xA0 PUSH1 0x84 DUP5 ADD MSTORE PUSH1 0x0 PUSH1 0xA4 DUP5 ADD MSTORE DUP3 SWAP1 DUP2 DUP4 DUP2 PUSH1 0xC4 DUP2 ADD JUMPDEST SUB SWAP3 GAS CALL DUP1 ISZERO PUSH2 0x20B6 JUMPI SWAP1 PUSH2 0x20A2 SWAP3 SWAP2 PUSH2 0x20A7 JUMPI JUMPDEST POP PUSH2 0x1B0D JUMP JUMPDEST PUSH2 0x1FE8 JUMP JUMPDEST PUSH2 0x20B0 SWAP1 PUSH2 0x19EB JUMP JUMPDEST CODESIZE PUSH2 0x209C JUMP JUMPDEST DUP8 MLOAD RETURNDATASIZE DUP13 DUP3 RETURNDATACOPY RETURNDATASIZE SWAP1 REVERT JUMPDEST DUP3 DUP1 REVERT JUMPDEST DUP4 PUSH2 0x20CF DUP3 DUP8 PUSH2 0x1859 JUMP JUMPDEST POP SLOAD AND DUP10 PUSH1 0x1 PUSH2 0x20DF DUP5 DUP10 PUSH2 0x1859 JUMP JUMPDEST POP ADD SLOAD DUP3 EXTCODESIZE ISZERO PUSH2 0x2121 JUMPI DUP9 MLOAD PUSH4 0x23B872DD PUSH1 0xE0 SHL DUP2 MSTORE ADDRESS PUSH1 0x4 DUP3 ADD MSTORE PUSH1 0x1 PUSH1 0x1 PUSH1 0xA0 SHL SUB DUP12 AND PUSH1 0x24 DUP3 ADD MSTORE PUSH1 0x44 DUP2 ADD SWAP2 SWAP1 SWAP2 MSTORE SWAP2 DUP3 SWAP1 DUP2 DUP4 DUP2 PUSH1 0x64 DUP2 ADD PUSH2 0x2087 JUMP JUMPDEST POP DUP1 REVERT JUMPDEST POP SWAP6 SWAP5 POP SWAP6 SWAP2 POP POP PUSH32 0x87C407D8BD6561811DC2D87BA2A42F60301B65A1DE11D09BFD04C6122C871E13 SWAP2 POP DUP1 LOG3 JUMP JUMPDEST PUSH1 0x40 MLOAD PUSH4 0xA9059CBB PUSH1 0xE0 SHL PUSH1 0x20 DUP3 ADD MSTORE PUSH1 0x1 PUSH1 0x1 PUSH1 0xA0 SHL SUB SWAP1 SWAP3 AND PUSH1 0x24 DUP4 ADD MSTORE PUSH1 0x44 DUP3 ADD SWAP3 SWAP1 SWAP3 MSTORE PUSH2 0x1A5D SWAP2 PUSH2 0xFB5 DUP3 PUSH1 0x64 DUP2 ADD PUSH2 0xFA7 JUMP JUMPDEST ISZERO PUSH2 0x2194 JUMPI JUMP JUMPDEST PUSH1 0x40 MLOAD PUSH3 0x461BCD PUSH1 0xE5 SHL DUP2 MSTORE PUSH1 0x20 PUSH1 0x4 DUP3 ADD MSTORE PUSH1 0x9 PUSH1 0x24 DUP3 ADD MSTORE PUSH9 0x2737BA1037BBB732B9 PUSH1 0xB9 SHL PUSH1 0x44 DUP3 ADD MSTORE PUSH1 0x64 SWAP1 REVERT INVALID LOG2 PUSH5 0x6970667358 0x22 SLT KECCAK256 SWAP1 PUSH10 0xD867D74E42BBDE416689 PUSH13 0x765FCF1AFA91C1FBCD67C5FDE5 REVERT CALLVALUE DUP7 LOG3 0x5E MSIZE PUSH5 0x736F6C6343 STOP ADDMOD EQ STOP CALLER "},"methodIdentifiers":{"capsuleNfts(uint256,uint256)":"069be17e","capsuleTokens(uint256,uint256)":"3286721a","capsules(uint256)":"517bbf46","createCapsule(uint8,address,string,uint256,bool,(address,uint256)[],(address,uint256,bool,uint256)[])":"77a71e0d","earlyOpen(uint256)":"75fcac2c","earlyUnlockPenaltyBps()":"995ae7b7","getCapsule(uint256)":"3aac3858","getCapsuleNfts(uint256)":"f90c5d1c","getCapsuleStatus(uint256)":"2c612bd8","getCapsuleTokens(uint256)":"c139b91f","getReceivedCapsules(address)":"880aad75","getUserCapsules(address)":"366636f7","nextCapsuleId()":"ae3cfaed","onERC1155BatchReceived(address,address,uint256[],uint256[],bytes)":"bc197c81","onERC1155Received(address,address,uint256,uint256,bytes)":"f23a6e61","onERC721Received(address,address,uint256,bytes)":"150b7a02","openCapsule(uint256)":"5c18e55c","owner()":"8da5cb5b","receivedCapsules(address,uint256)":"81e909eb","setPenaltyBps(uint256)":"c441bdd6","setTreasury(address)":"f0f44260","transferOwnership(address)":"f2fde38b","treasury()":"61d027b3","userCapsules(address,uint256)":"a0d79fb5"}}}}}