{
  "_format": "hh-sol-artifact-1",
  "contractName": "ChainLogCapsule",
  "sourceName": "contracts/ChainLogCapsule.sol",
  "abi": [
    {
      "inputs": [
        {
          "internalType": "address",
          "name": "_treasury",
          "type": "address"
        }
      ],
      "stateMutability": "nonpayable",
      "type": "constructor"
    },
    {
      "inputs": [],
      "name": "ReentrancyGuardReentrantCall",
      "type": "error"
    },
    {
      "inputs": [
        {
          "internalType": "address",
          "name": "token",
          "type": "address"
        }
      ],
      "name": "SafeERC20FailedOperation",
      "type": "error"
    },
    {
      "anonymous": false,
      "inputs": [
        {
          "indexed": true,
          "internalType": "uint256",
          "name": "capsuleId",
          "type": "uint256"
        },
        {
          "indexed": true,
          "internalType": "address",
          "name": "creator",
          "type": "address"
        },
        {
          "indexed": true,
          "internalType": "address",
          "name": "recipient",
          "type": "address"
        },
        {
          "indexed": false,
          "internalType": "enum ChainLogCapsule.CapsuleType",
          "name": "capsuleType",
          "type": "uint8"
        },
        {
          "indexed": false,
          "internalType": "uint256",
          "name": "unlockTime",
          "type": "uint256"
        },
        {
          "indexed": false,
          "internalType": "string",
          "name": "contentCID",
          "type": "string"
        }
      ],
      "name": "CapsuleCreated",
      "type": "event"
    },
    {
      "anonymous": false,
      "inputs": [
        {
          "indexed": true,
          "internalType": "uint256",
          "name": "capsuleId",
          "type": "uint256"
        },
        {
          "indexed": true,
          "internalType": "address",
          "name": "opener",
          "type": "address"
        },
        {
          "indexed": false,
          "internalType": "uint256",
          "name": "penalty",
          "type": "uint256"
        }
      ],
      "name": "CapsuleEarlyOpened",
      "type": "event"
    },
    {
      "anonymous": false,
      "inputs": [
        {
          "indexed": true,
          "internalType": "uint256",
          "name": "capsuleId",
          "type": "uint256"
        },
        {
          "indexed": true,
          "internalType": "address",
          "name": "opener",
          "type": "address"
        }
      ],
      "name": "CapsuleOpened",
      "type": "event"
    },
    {
      "anonymous": false,
      "inputs": [
        {
          "indexed": true,
          "internalType": "uint256",
          "name": "capsuleId",
          "type": "uint256"
        },
        {
          "indexed": true,
          "internalType": "address",
          "name": "to",
          "type": "address"
        }
      ],
      "name": "NftsWithdrawn",
      "type": "event"
    },
    {
      "anonymous": false,
      "inputs": [
        {
          "indexed": true,
          "internalType": "uint256",
          "name": "capsuleId",
          "type": "uint256"
        },
        {
          "indexed": true,
          "internalType": "address",
          "name": "to",
          "type": "address"
        }
      ],
      "name": "TokensWithdrawn",
      "type": "event"
    },
    {
      "inputs": [
        {
          "internalType": "uint256",
          "name": "",
          "type": "uint256"
        },
        {
          "internalType": "uint256",
          "name": "",
          "type": "uint256"
        }
      ],
      "name": "capsuleNfts",
      "outputs": [
        {
          "internalType": "address",
          "name": "collection",
          "type": "address"
        },
        {
          "internalType": "uint256",
          "name": "tokenId",
          "type": "uint256"
        },
        {
          "internalType": "bool",
          "name": "isERC1155",
          "type": "bool"
        },
        {
          "internalType": "uint256",
          "name": "amount",
          "type": "uint256"
        }
      ],
      "stateMutability": "view",
      "type": "function"
    },
    {
      "inputs": [
        {
          "internalType": "uint256",
          "name": "",
          "type": "uint256"
        },
        {
          "internalType": "uint256",
          "name": "",
          "type": "uint256"
        }
      ],
      "name": "capsuleTokens",
      "outputs": [
        {
          "internalType": "address",
          "name": "token",
          "type": "address"
        },
        {
          "internalType": "uint256",
          "name": "amount",
          "type": "uint256"
        }
      ],
      "stateMutability": "view",
      "type": "function"
    },
    {
      "inputs": [
        {
          "internalType": "uint256",
          "name": "",
          "type": "uint256"
        }
      ],
      "name": "capsules",
      "outputs": [
        {
          "internalType": "uint256",
          "name": "id",
          "type": "uint256"
        },
        {
          "internalType": "address",
          "name": "creator",
          "type": "address"
        },
        {
          "internalType": "address",
          "name": "recipient",
          "type": "address"
        },
        {
          "internalType": "enum ChainLogCapsule.CapsuleType",
          "name": "capsuleType",
          "type": "uint8"
        },
        {
          "internalType": "enum ChainLogCapsule.CapsuleStatus",
          "name": "status",
          "type": "uint8"
        },
        {
          "internalType": "string",
          "name": "contentCID",
          "type": "string"
        },
        {
          "internalType": "uint256",
          "name": "sealTime",
          "type": "uint256"
        },
        {
          "internalType": "uint256",
          "name": "unlockTime",
          "type": "uint256"
        },
        {
          "internalType": "bool",
          "name": "allowEarlyUnlock",
          "type": "bool"
        },
        {
          "internalType": "uint256",
          "name": "nativeAmount",
          "type": "uint256"
        },
        {
          "internalType": "uint256",
          "name": "tokenCount",
          "type": "uint256"
        },
        {
          "internalType": "uint256",
          "name": "nftCount",
          "type": "uint256"
        }
      ],
      "stateMutability": "view",
      "type": "function"
    },
    {
      "inputs": [
        {
          "internalType": "enum ChainLogCapsule.CapsuleType",
          "name": "_type",
          "type": "uint8"
        },
        {
          "internalType": "address",
          "name": "_recipient",
          "type": "address"
        },
        {
          "internalType": "string",
          "name": "_contentCID",
          "type": "string"
        },
        {
          "internalType": "uint256",
          "name": "_unlockTime",
          "type": "uint256"
        },
        {
          "internalType": "bool",
          "name": "_allowEarlyUnlock",
          "type": "bool"
        },
        {
          "components": [
            {
              "internalType": "address",
              "name": "token",
              "type": "address"
            },
            {
              "internalType": "uint256",
              "name": "amount",
              "type": "uint256"
            }
          ],
          "internalType": "struct ChainLogCapsule.TokenLock[]",
          "name": "_tokens",
          "type": "tuple[]"
        },
        {
          "components": [
            {
              "internalType": "address",
              "name": "collection",
              "type": "address"
            },
            {
              "internalType": "uint256",
              "name": "tokenId",
              "type": "uint256"
            },
            {
              "internalType": "bool",
              "name": "isERC1155",
              "type": "bool"
            },
            {
              "internalType": "uint256",
              "name": "amount",
              "type": "uint256"
            }
          ],
          "internalType": "struct ChainLogCapsule.NftLock[]",
          "name": "_nfts",
          "type": "tuple[]"
        }
      ],
      "name": "createCapsule",
      "outputs": [
        {
          "internalType": "uint256",
          "name": "",
          "type": "uint256"
        }
      ],
      "stateMutability": "payable",
      "type": "function"
    },
    {
      "inputs": [
        {
          "internalType": "uint256",
          "name": "_capsuleId",
          "type": "uint256"
        }
      ],
      "name": "earlyOpen",
      "outputs": [],
      "stateMutability": "nonpayable",
      "type": "function"
    },
    {
      "inputs": [],
      "name": "earlyUnlockPenaltyBps",
      "outputs": [
        {
          "internalType": "uint256",
          "name": "",
          "type": "uint256"
        }
      ],
      "stateMutability": "view",
      "type": "function"
    },
    {
      "inputs": [
        {
          "internalType": "uint256",
          "name": "_id",
          "type": "uint256"
        }
      ],
      "name": "getCapsule",
      "outputs": [
        {
          "components": [
            {
              "internalType": "uint256",
              "name": "id",
              "type": "uint256"
            },
            {
              "internalType": "address",
              "name": "creator",
              "type": "address"
            },
            {
              "internalType": "address",
              "name": "recipient",
              "type": "address"
            },
            {
              "internalType": "enum ChainLogCapsule.CapsuleType",
              "name": "capsuleType",
              "type": "uint8"
            },
            {
              "internalType": "enum ChainLogCapsule.CapsuleStatus",
              "name": "status",
              "type": "uint8"
            },
            {
              "internalType": "string",
              "name": "contentCID",
              "type": "string"
            },
            {
              "internalType": "uint256",
              "name": "sealTime",
              "type": "uint256"
            },
            {
              "internalType": "uint256",
              "name": "unlockTime",
              "type": "uint256"
            },
            {
              "internalType": "bool",
              "name": "allowEarlyUnlock",
              "type": "bool"
            },
            {
              "internalType": "uint256",
              "name": "nativeAmount",
              "type": "uint256"
            },
            {
              "internalType": "uint256",
              "name": "tokenCount",
              "type": "uint256"
            },
            {
              "internalType": "uint256",
              "name": "nftCount",
              "type": "uint256"
            }
          ],
          "internalType": "struct ChainLogCapsule.Capsule",
          "name": "",
          "type": "tuple"
        }
      ],
      "stateMutability": "view",
      "type": "function"
    },
    {
      "inputs": [
        {
          "internalType": "uint256",
          "name": "_id",
          "type": "uint256"
        }
      ],
      "name": "getCapsuleNfts",
      "outputs": [
        {
          "components": [
            {
              "internalType": "address",
              "name": "collection",
              "type": "address"
            },
            {
              "internalType": "uint256",
              "name": "tokenId",
              "type": "uint256"
            },
            {
              "internalType": "bool",
              "name": "isERC1155",
              "type": "bool"
            },
            {
              "internalType": "uint256",
              "name": "amount",
              "type": "uint256"
            }
          ],
          "internalType": "struct ChainLogCapsule.NftLock[]",
          "name": "",
          "type": "tuple[]"
        }
      ],
      "stateMutability": "view",
      "type": "function"
    },
    {
      "inputs": [
        {
          "internalType": "uint256",
          "name": "_id",
          "type": "uint256"
        }
      ],
      "name": "getCapsuleStatus",
      "outputs": [
        {
          "internalType": "enum ChainLogCapsule.CapsuleStatus",
          "name": "",
          "type": "uint8"
        }
      ],
      "stateMutability": "view",
      "type": "function"
    },
    {
      "inputs": [
        {
          "internalType": "uint256",
          "name": "_id",
          "type": "uint256"
        }
      ],
      "name": "getCapsuleTokens",
      "outputs": [
        {
          "components": [
            {
              "internalType": "address",
              "name": "token",
              "type": "address"
            },
            {
              "internalType": "uint256",
              "name": "amount",
              "type": "uint256"
            }
          ],
          "internalType": "struct ChainLogCapsule.TokenLock[]",
          "name": "",
          "type": "tuple[]"
        }
      ],
      "stateMutability": "view",
      "type": "function"
    },
    {
      "inputs": [
        {
          "internalType": "address",
          "name": "_user",
          "type": "address"
        }
      ],
      "name": "getReceivedCapsules",
      "outputs": [
        {
          "internalType": "uint256[]",
          "name": "",
          "type": "uint256[]"
        }
      ],
      "stateMutability": "view",
      "type": "function"
    },
    {
      "inputs": [
        {
          "internalType": "address",
          "name": "_user",
          "type": "address"
        }
      ],
      "name": "getUserCapsules",
      "outputs": [
        {
          "internalType": "uint256[]",
          "name": "",
          "type": "uint256[]"
        }
      ],
      "stateMutability": "view",
      "type": "function"
    },
    {
      "inputs": [],
      "name": "nextCapsuleId",
      "outputs": [
        {
          "internalType": "uint256",
          "name": "",
          "type": "uint256"
        }
      ],
      "stateMutability": "view",
      "type": "function"
    },
    {
      "inputs": [
        {
          "internalType": "address",
          "name": "",
          "type": "address"
        },
        {
          "internalType": "address",
          "name": "",
          "type": "address"
        },
        {
          "internalType": "uint256[]",
          "name": "",
          "type": "uint256[]"
        },
        {
          "internalType": "uint256[]",
          "name": "",
          "type": "uint256[]"
        },
        {
          "internalType": "bytes",
          "name": "",
          "type": "bytes"
        }
      ],
      "name": "onERC1155BatchReceived",
      "outputs": [
        {
          "internalType": "bytes4",
          "name": "",
          "type": "bytes4"
        }
      ],
      "stateMutability": "pure",
      "type": "function"
    },
    {
      "inputs": [
        {
          "internalType": "address",
          "name": "",
          "type": "address"
        },
        {
          "internalType": "address",
          "name": "",
          "type": "address"
        },
        {
          "internalType": "uint256",
          "name": "",
          "type": "uint256"
        },
        {
          "internalType": "uint256",
          "name": "",
          "type": "uint256"
        },
        {
          "internalType": "bytes",
          "name": "",
          "type": "bytes"
        }
      ],
      "name": "onERC1155Received",
      "outputs": [
        {
          "internalType": "bytes4",
          "name": "",
          "type": "bytes4"
        }
      ],
      "stateMutability": "pure",
      "type": "function"
    },
    {
      "inputs": [
        {
          "internalType": "address",
          "name": "",
          "type": "address"
        },
        {
          "internalType": "address",
          "name": "",
          "type": "address"
        },
        {
          "internalType": "uint256",
          "name": "",
          "type": "uint256"
        },
        {
          "internalType": "bytes",
          "name": "",
          "type": "bytes"
        }
      ],
      "name": "onERC721Received",
      "outputs": [
        {
          "internalType": "bytes4",
          "name": "",
          "type": "bytes4"
        }
      ],
      "stateMutability": "pure",
      "type": "function"
    },
    {
      "inputs": [
        {
          "internalType": "uint256",
          "name": "_capsuleId",
          "type": "uint256"
        }
      ],
      "name": "openCapsule",
      "outputs": [],
      "stateMutability": "nonpayable",
      "type": "function"
    },
    {
      "inputs": [],
      "name": "owner",
      "outputs": [
        {
          "internalType": "address",
          "name": "",
          "type": "address"
        }
      ],
      "stateMutability": "view",
      "type": "function"
    },
    {
      "inputs": [
        {
          "internalType": "address",
          "name": "",
          "type": "address"
        },
        {
          "internalType": "uint256",
          "name": "",
          "type": "uint256"
        }
      ],
      "name": "receivedCapsules",
      "outputs": [
        {
          "internalType": "uint256",
          "name": "",
          "type": "uint256"
        }
      ],
      "stateMutability": "view",
      "type": "function"
    },
    {
      "inputs": [
        {
          "internalType": "uint256",
          "name": "_bps",
          "type": "uint256"
        }
      ],
      "name": "setPenaltyBps",
      "outputs": [],
      "stateMutability": "nonpayable",
      "type": "function"
    },
    {
      "inputs": [
        {
          "internalType": "address",
          "name": "_treasury",
          "type": "address"
        }
      ],
      "name": "setTreasury",
      "outputs": [],
      "stateMutability": "nonpayable",
      "type": "function"
    },
    {
      "inputs": [
        {
          "internalType": "address",
          "name": "_new",
          "type": "address"
        }
      ],
      "name": "transferOwnership",
      "outputs": [],
      "stateMutability": "nonpayable",
      "type": "function"
    },
    {
      "inputs": [],
      "name": "treasury",
      "outputs": [
        {
          "internalType": "address",
          "name": "",
          "type": "address"
        }
      ],
      "stateMutability": "view",
      "type": "function"
    },
    {
      "inputs": [
        {
          "internalType": "address",
          "name": "",
          "type": "address"
        },
        {
          "internalType": "uint256",
          "name": "",
          "type": "uint256"
        }
      ],
      "name": "userCapsules",
      "outputs": [
        {
          "internalType": "uint256",
          "name": "",
          "type": "uint256"
        }
      ],
      "stateMutability": "view",
      "type": "function"
    },
    {
      "stateMutability": "payable",
      "type": "receive"
    }
  ],
  "bytecode": "0x60803461008957601f6122a038819003918201601f19168301916001600160401b0383118484101761008e5780849260209460405283398101031261008957516001600160a01b03811690819003610089576001600055600180556103e860025560018060a01b03193381600354161760035560045416176004556040516121fb90816100a58239f35b600080fd5b634e487b7160e01b600052604160045260246000fdfe6080604052600436101561001b575b361561001957600080fd5b005b60003560e01c8063069be17e146117d9578063150b7a02146117835780632c612bd8146117565780633286721a14611702578063366636f71461168a5780633aac385814611558578063517bbf46146114765780635c18e55c1461136f57806361d027b31461134657806375fcac2c1461109c57806377a71e0d146106ae57806381e909eb14610664578063880aad75146105dc5780638da5cb5b146105b3578063995ae7b714610595578063a0d79fb51461053d578063ae3cfaed1461051f578063bc197c8114610494578063c139b91f146103ac578063c441bdd614610346578063f0f44260146102f5578063f23a6e611461029f578063f2fde38b146102585763f90c5d1c0361000e5734610253576020806003193601126102535760043560005260078152604060002090815461015581611db1565b9061016360405192836119fe565b808252600093845282842083830194855b8382106101df5760408051878152865181890181905289928201908960005b8281106101a05784840385f35b855180516001600160a01b0316855280830151858401526040808201511515908601526060908101519085015294810194608090930192600101610193565b604051608081018181106001600160401b0382111761023d576001926004928992604052848060a01b038754168152848701548382015260ff6002880154161515604082015260038701546060820152815201930191019091610174565b634e487b7160e01b600052604160045260246000fd5b600080fd5b346102535760203660031901126102535761027161188b565b600354906001600160a01b039061028b338385161461218d565b6001600160a01b0319909216911617600355005b346102535760a0366003190112610253576102b861188b565b506102c16118a1565b506084356001600160401b038111610253576102e19036906004016118b7565b505060405163f23a6e6160e01b8152602090f35b346102535760203660031901126102535761030e61188b565b6003546001600160a01b039190610328908316331461218d565b166bffffffffffffffffffffffff60a01b6004541617600455600080f35b346102535760203660031901126102535760043561036f60018060a01b0360035416331461218d565b611388811161037d57600255005b60405162461bcd60e51b81526020600482015260076024820152664d61782035302560c81b6044820152606490fd5b3461025357602080600319360112610253576004356000526006815260406000209081546103d981611db1565b906103e760405192836119fe565b808252600093845282842083830194855b83821061044c5760408051878152865181890181905289928201908960005b8281106104245784840385f35b855180516001600160a01b031685528201518483015294810194604090930192600101610417565b604051604081018181106001600160401b0382111761023d5760405283546001600160a01b0316815260018085015488830152908252600290930192919091019085016103f8565b346102535760a0366003190112610253576104ad61188b565b506104b66118a1565b506001600160401b03604435818111610253576104d7903690600401611add565b5050606435818111610253576104f1903690600401611add565b50506084359081116102535761050b9036906004016118b7565b505060405163bc197c8160e01b8152602090f35b34610253576000366003190112610253576020600154604051908152f35b346102535760403660031901126102535761055661188b565b6001600160a01b03166000908152600860205260409020805460243591908210156102535760209161058791611ac5565b90546040519160031b1c8152f35b34610253576000366003190112610253576020600254604051908152f35b34610253576000366003190112610253576003546040516001600160a01b039091168152602090f35b3461025357602080600319360112610253576001600160a01b036105fe61188b565b1660005260098152604060002090604051908181845491828152019360005281600020916000905b82821061064d576106498561063d818903826119fe565b6040519182918261190d565b0390f35b835486529485019460019384019390910190610626565b346102535760403660031901126102535761067d61188b565b6001600160a01b03166000908152600960205260409020805460243591908210156102535760209161058791611ac5565b60e03660031901126102535760036004351015610253576106cd6118a1565b6044356001600160401b038111610253576106ec9036906004016118b7565b9190608435918215158303610253576001600160401b0360a435116102535736602360a435011215610253576001600160401b0360a43560040135116102535736602460a4356004013560061b60a435010111610253576001600160401b0360c435116102535736602360c435011215610253576001600160401b0360c43560040135116102535736602460c4356004013560071b60c43501011161025357610793611c22565b9242606435111561105757801561101b57600435600103611003576001600160a01b0384168015159081610ff8575b5015610fbf575b600154926107d684611b0d565b6001556000805b60a435600401358110610e6c5750803410610e275760005b60c435600401358110610bdd575060405191610810836119cf565b8583523360208401526001600160a01b038716604084015261083760043560608501611b6a565b6000608084015261084784611b76565b61085460405191826119fe565b8481523685870111610253578486602083013760006020868301015260a08401524260c084015260643560e0840152151561010083015261012082015260a4356004013561014082015260c435600401356101608201528360005260056020526040600020815181556001810160018060a01b036020840151166bffffffffffffffffffffffff60a01b82541617905560018060a01b0360408301511660028201908154906060850151906003821015610bc75760808601516004811015610bc75760ff60a81b9060a81b169269ffffffffffffffffffff60b01b16179060ff60a01b9060a01b161717905560a0820151918251926001600160401b03841161023d576109646003840154611995565b601f8111610b80575b50916020979187938990601f8711600114610ae65791867f5ecda452a46d099b7501bf13bff76f7ae8dfe26d288fe25e37ff1604ebd58041969761016093600995600092610adb575b50508160011b916000199060031b1c19161760038501555b60c0810151600485015560e08101516005850155610a026101008201511515600686019060ff801983541691151516179055565b6101208101516007850155610140810151600885015501519101553360005260088752610a33836040600020611b91565b6001600160a01b038116151580610ac8575b610aa5575b8360405195610a5b87600435611948565b6064358988015260606040880152816060880152608087013760006080858701015260018060a01b0316936080813395601f80199101168101030190a46001600055604051908152f35b60018060a01b03811660005260098752610ac3836040600020611b91565b610a4a565b506001600160a01b038116331415610a45565b015190508d806109b6565b9590600384016000528a6000209660005b601f1984168110610b665750827f5ecda452a46d099b7501bf13bff76f7ae8dfe26d288fe25e37ff1604ebd5804197986009959360019361016096601f19811610610b4d575b505050811b0160038501556109ce565b015160001960f88460031b161c191690558d8080610b3d565b8282015189556001909801978b9750918c01918c01610af7565b600384016000526020600020601f860160051c810160208710610bc0575b601f830160051c82018110610bb457505061096d565b60008155600101610b9e565b5080610b9e565b634e487b7160e01b600052602160045260246000fd5b610bfe6040610bf88360c43560040135602460c43501611b4d565b01611b5d565b15610d95576001600160a01b03610c28610c238360c435600481013590602401611b4d565b611b2c565b166020610c418360c43560040135602460c43501611b4d565b01356060610c5b8460c43560040135602460c43501611b4d565b0135823b1561025357604051637921219560e11b81523360048201523060248201526044810192909252606482015260a06084820152600060a482018190529091829060c490829084905af18015610d8957610d7a575b505b856000526007602052604060002090610cd98160c43560040135602460c43501611b4d565b918054600160401b81101561023d57610cf791600182018155611859565b610d6457610d5f926003906060906001600160a01b03610d1682611b2c565b85546001600160a01b031916911617845560208101356001850155610d55610d4060408301611b5d565b600286019060ff801983541691151516179055565b0135910155611b0d565b6107f5565b634e487b7160e01b600052600060045260246000fd5b610d83906119eb565b87610cb2565b6040513d6000823e3d90fd5b6001600160a01b03610db5610c238360c435600481013590602401611b4d565b166020610dce8360c43560040135602460c43501611b4d565b013590803b15610253576040516323b872dd60e01b815233600482015230602482015260448101929092526000908290606490829084905af18015610d8957610e18575b50610cb4565b610e21906119eb565b87610e12565b60405162461bcd60e51b815260206004820152601960248201527f496e73756666696369656e74206e617469766520746f6b656e000000000000006044820152606490fd5b906001600160a01b03610e8d610c238460a435600481013590602401611b1c565b16610f3a57610eb6906020610eae8460a43560040135602460a43501611b1c565b013590611b40565b905b856000526006602052604060002090610edd8160a43560040135602460a43501611b1c565b918054600160401b81101561023d57610efb916001820181556118f1565b610d6457610f35926001906020906001600160a01b03610f1a82611b2c565b85546001600160a01b03191691161784550135910155611b0d565b6107dd565b90610fba6001600160a01b03610f5e610c238460a435600481013590602401611b1c565b16602090610fb582610f7c8660a43560040135602460a43501611b1c565b6040516323b872dd60e01b958101959095523360248601523060448601520135606484015282608481015b03601f1981018452836119fe565b611bc6565b610eb8565b60405162461bcd60e51b8152602060048201526011602482015270125b9d985b1a59081c9958da5c1a595b9d607a1b6044820152606490fd5b9050331415856107c2565b92506004356110135733926107c9565b6000926107c9565b60405162461bcd60e51b815260206004820152601460248201527310dbdb9d195b9d0810d251081c995c5d5a5c995960621b6044820152606490fd5b60405162461bcd60e51b815260206004820152601860248201527f556e6c6f636b206d75737420626520696e2066757475726500000000000000006044820152606490fd5b3461025357602080600319360112610253576004356110b9611c22565b806000526005825260406000206110d281541515611c45565b60029283820180549260ff8460a81c166004811015610bc7576110f59015611c85565b60ff600682015416156113015760058101544210156112b05761111a61111f91611cc2565b611e48565b936001600160a01b038086169490929061113a338714611d74565b60ff60a81b1916600360a81b1790556000818152600684526040812090949091855b83548710156112755761116f87856118f1565b50906001809201548a549081810291818304149015171561125f5761271090049161119a89876118f1565b500180549083820391821161125f5755856111b589876118f1565b505416611235576000808080858a600454165af16111d1611e95565b50156111f0576111ea916111e491611b40565b96611b0d565b9561115c565b60405162461bcd60e51b815260048101889052601760248201527f50656e616c7479207472616e73666572206661696c65640000000000000000006044820152606490fd5b816111e49161125a6111ea948961124c8d8b6118f1565b5054168a6004541690612154565b611b40565b634e487b7160e01b600052601160045260246000fd5b857f0ee09d8fc4a2a58e470b4416a10ab4fff966a3f946bcda7d3d37056b221b9779916112a28a85611ec5565b604051908152a36001600055005b60405162461bcd60e51b815260048101849052602360248201527f416c726561647920756e6c6f636b61626c652c20757365206f70656e43617073604482015262756c6560e81b6064820152608490fd5b60405162461bcd60e51b815260048101849052601860248201527f4561726c7920756e6c6f636b206e6f7420616c6c6f77656400000000000000006044820152606490fd5b34610253576000366003190112610253576004546040516001600160a01b039091168152602090f35b346102535760203660031901126102535760043561138b611c22565b8060005260056020526040600020906113a682541515611c45565b600282019182549260ff8460a81c166004811015610bc7576113c89015611c85565b6005820154421061143c576113e261111a61141093611cc2565b6001600160a01b038116949091906113fb338714611d74565b60ff60a81b1916600160a91b17905582611ec5565b7f7d3112e72b789ad7c63705ec623a9760c64dd2b02125a7a8d5e96d252c4009f6600080a36001600055005b60405162461bcd60e51b81526020600482015260126024820152714e6f742079657420756e6c6f636b61626c6560701b6044820152606490fd5b346102535760203660031901126102535760043560005260056020526040600020805460018060a01b039182600182015416926002820154916114bb60038201611a1f565b92600482015493600583015461152f60ff6006860154169261151e60078701549560096008890154980154986040519c8d9c8d5260208d0152811660408c015261150e60608c0160ff8360a01c16611948565b60ff60808c019160a81c166118e4565b6101808060a08b0152890190611955565b9560c088015260e087015215156101008601526101208501526101408401526101608301520390f35b34610253576020806003193601126102535760405190611577826119cf565b60008252600081830152600060408301526000606083015260006080830152606060a0830152600060c0830152600060e083015261010060008184015261012060008185015261014093600085820152600061016080920152600435600052600584526115e76040600020611cc2565b60405195858796875282518188015260018060a01b038091840151166040880152604083015116606087015261162560608301516080880190611948565b611637608083015160a08801906118e4565b60a082015193611655610180958660c08a01526101a0890190611955565b9560c084015160e089015260e08401518189015283015115158188015282015181870152810151828601520151908301520390f35b3461025357602080600319360112610253576001600160a01b036116ac61188b565b1660005260088152604060002090604051908181845491828152019360005281600020916000905b8282106116eb576106498561063d818903826119fe565b8354865294850194600193840193909101906116d4565b346102535761171036611843565b906000526006602052604060002090815481101561025357611731916118f1565b508054600190910154604080516001600160a01b039093168352602083019190915290f35b34610253576020366003190112610253576020611774600435611dc8565b61178160405180926118e4565bf35b346102535760803660031901126102535761179c61188b565b506117a56118a1565b506064356001600160401b038111610253576117c59036906004016118b7565b5050604051630a85bd0160e11b8152602090f35b34610253576117e736611843565b906000526007602052604060002080548210156102535760809161180a91611859565b5060018060a01b0381541690600181015490600360ff600283015416910154916040519384526020840152151560408301526060820152f35b6040906003190112610253576004359060243590565b80548210156118755760005260206000209060021b0190600090565b634e487b7160e01b600052603260045260246000fd5b600435906001600160a01b038216820361025357565b602435906001600160a01b038216820361025357565b9181601f84011215610253578235916001600160401b038311610253576020838186019501011161025357565b906004821015610bc75752565b80548210156118755760005260206000209060011b0190600090565b6020908160408183019282815285518094520193019160005b828110611934575050505090565b835185529381019392810192600101611926565b906003821015610bc75752565b919082519283825260005b848110611981575050826000602080949584010152601f8019910116010190565b602081830181015184830182015201611960565b90600182811c921680156119c5575b60208310146119af57565b634e487b7160e01b600052602260045260246000fd5b91607f16916119a4565b61018081019081106001600160401b0382111761023d57604052565b6001600160401b03811161023d57604052565b90601f801991011681019081106001600160401b0382111761023d57604052565b9060405191826000825492611a3384611995565b908184526001948581169081600014611aa25750600114611a5f575b5050611a5d925003836119fe565b565b9093915060005260209081600020936000915b818310611a8a575050611a5d93508201013880611a4f565b85548884018501529485019487945091830191611a72565b915050611a5d94506020925060ff191682840152151560051b8201013880611a4f565b80548210156118755760005260206000200190600090565b9181601f84011215610253578235916001600160401b038311610253576020808501948460051b01011161025357565b600019811461125f5760010190565b91908110156118755760061b0190565b356001600160a01b03811681036102535790565b9190820180921161125f57565b91908110156118755760071b0190565b3580151581036102535790565b6003821015610bc75752565b6001600160401b03811161023d57601f01601f191660200190565b8054600160401b81101561023d57611bae91600182018155611ac5565b819291549060031b91821b91600019901b1916179055565b906000602091828151910182855af115610d89576000513d611c1957506001600160a01b0381163b155b611bf75750565b604051635274afe760e01b81526001600160a01b039091166004820152602490fd5b60011415611bf0565b600260005414611c33576002600055565b604051633ee5aeb560e01b8152600490fd5b15611c4c57565b60405162461bcd60e51b815260206004820152601160248201527010d85c1cdd5b19481b9bdd08199bdd5b99607a1b6044820152606490fd5b15611c8c57565b60405162461bcd60e51b815260206004820152600e60248201526d105b1c9958591e481bdc195b995960921b6044820152606490fd5b90604051611ccf816119cf565b80928054825260ff60018060a01b0380600184015416602085015260028301549081166040850152611d09828260a01c1660608601611b6a565b60a81c166004811015610bc757610160916009916080850152611d2e60038201611a1f565b60a0850152600481015460c0850152600581015460e085015260ff6006820154161515610100850152600781015461012085015260088101546101408501520154910152565b15611d7b57565b60405162461bcd60e51b815260206004820152600e60248201526d139bdd08185d5d1a1bdc9a5e995960921b6044820152606490fd5b6001600160401b03811161023d5760051b60200190565b60009081526005602052611dde60408220611cc2565b608081019081516004811015611e3457159081611e25575b50611e1e5751906004821015611e0a575090565b634e487b7160e01b81526021600452602490fd5b5050600190565b60e09150015142101538611df6565b634e487b7160e01b84526021600452602484fd5b6060810180516003811015610bc757600214611e8f57516003811015610bc757600114611e7f57602001516001600160a01b031690565b604001516001600160a01b031690565b50503390565b3d15611ec0573d90611ea682611b76565b91611eb460405193846119fe565b82523d6000602084013e565b606090565b60008181526020926006845260409283832090835b8254811015611f9e57611eed81846118f1565b50546001600160a01b03908116611f6e5750848080806001611f0f86896118f1565b500154885af1611f1d611e95565b5015611f3157611f2c90611b0d565b611eda565b855162461bcd60e51b815260048101889052601660248201527513985d1a5d99481d1c985b9cd9995c8819985a5b195960521b6044820152606490fd5b90611f99611f2c92611f8083876118f1565b505416866001611f9085896118f1565b50015491612154565b611b0d565b50929592949193926001600160a01b038086169390925060079084887f0ddddc48b57dd67f8fa2ff05c78034b578c31ef5caa05b03d2ca16feadbbb98f8b80a38789525283872092875b84548110156121255760ff6002611fff8388611859565b50015416156120c457836120138287611859565b5054168960016120238489611859565b500154916003612033858a611859565b50015490803b156120c0578951637921219560e11b81523060048201526001600160a01b038c1660248201526044810194909452606484019190915260a06084840152600060a4840152829081838160c481015b03925af180156120b657906120a292916120a7575b50611b0d565b611fe8565b6120b0906119eb565b3861209c565b87513d8c823e3d90fd5b8280fd5b836120cf8287611859565b5054168960016120df8489611859565b500154823b156121215788516323b872dd60e01b81523060048201526001600160a01b038b166024820152604481019190915291829081838160648101612087565b5080fd5b50959450959150507f87c407d8bd6561811dc2d87ba2a42f60301b65a1de11d09bfd04c6122c871e13915080a3565b60405163a9059cbb60e01b60208201526001600160a01b0390921660248301526044820192909252611a5d91610fb58260648101610fa7565b1561219457565b60405162461bcd60e51b81526020600482015260096024820152682737ba1037bbb732b960b91b6044820152606490fdfea26469706673582212209069d867d74e42bbde4166896c765fcf1afa91c1fbcd67c5fde5fd3486a35e5964736f6c63430008140033",
  "linkReferences": {},
  "deployedLinkReferences": {}
}